{
  "_format": "hh-sol-artifact-1",
  "contractName": "Auction",
  "sourceName": "contracts/Auction.sol",
  "abi": [
    {
      "inputs": [
        {
          "internalType": "address",
          "name": "_landRegistry",
          "type": "address"
        }
      ],
      "stateMutability": "nonpayable",
      "type": "constructor"
    },
    {
      "anonymous": false,
      "inputs": [
        {
          "indexed": true,
          "internalType": "uint256",
          "name": "tokenId",
          "type": "uint256"
        },
        {
          "indexed": false,
          "internalType": "address",
          "name": "winner",
          "type": "address"
        },
        {
          "indexed": false,
          "internalType": "uint256",
          "name": "finalPrice",
          "type": "uint256"
        }
      ],
      "name": "AuctionEnded",
      "type": "event"
    },
    {
      "anonymous": false,
      "inputs": [
        {
          "indexed": true,
          "internalType": "uint256",
          "name": "tokenId",
          "type": "uint256"
        },
        {
          "indexed": false,
          "internalType": "uint256",
          "name": "startingPrice",
          "type": "uint256"
        },
        {
          "indexed": false,
          "internalType": "uint256",
          "name": "endTime",
          "type": "uint256"
        }
      ],
      "name": "AuctionStarted",
      "type": "event"
    },
    {
      "anonymous": false,
      "inputs": [
        {
          "indexed": true,
          "internalType": "uint256",
          "name": "tokenId",
          "type": "uint256"
        },
        {
          "indexed": false,
          "internalType": "address",
          "name": "bidder",
          "type": "address"
        },
        {
          "indexed": false,
          "internalType": "uint256",
          "name": "bidAmount",
          "type": "uint256"
        }
      ],
      "name": "NewBid",
      "type": "event"
    },
    {
      "inputs": [
        {
          "internalType": "uint256",
          "name": "",
          "type": "uint256"
        }
      ],
      "name": "auctions",
      "outputs": [
        {
          "internalType": "address",
          "name": "seller",
          "type": "address"
        },
        {
          "internalType": "uint256",
          "name": "startingPrice",
          "type": "uint256"
        },
        {
          "internalType": "uint256",
          "name": "highestBid",
          "type": "uint256"
        },
        {
          "internalType": "address",
          "name": "highestBidder",
          "type": "address"
        },
        {
          "internalType": "uint256",
          "name": "endTime",
          "type": "uint256"
        }
      ],
      "stateMutability": "view",
      "type": "function"
    },
    {
      "inputs": [
        {
          "internalType": "uint256",
          "name": "tokenId",
          "type": "uint256"
        }
      ],
      "name": "endAuction",
      "outputs": [],
      "stateMutability": "nonpayable",
      "type": "function"
    },
    {
      "inputs": [],
      "name": "landRegistry",
      "outputs": [
        {
          "internalType": "contract IERC721",
          "name": "",
          "type": "address"
        }
      ],
      "stateMutability": "view",
      "type": "function"
    },
    {
      "inputs": [
        {
          "internalType": "uint256",
          "name": "tokenId",
          "type": "uint256"
        }
      ],
      "name": "placeBid",
      "outputs": [],
      "stateMutability": "payable",
      "type": "function"
    },
    {
      "inputs": [
        {
          "internalType": "uint256",
          "name": "tokenId",
          "type": "uint256"
        },
        {
          "internalType": "uint256",
          "name": "startingPrice",
          "type": "uint256"
        },
        {
          "internalType": "uint256",
          "name": "duration",
          "type": "uint256"
        }
      ],
      "name": "startAuction",
      "outputs": [],
      "stateMutability": "nonpayable",
      "type": "function"
    }
  ],
  "bytecode": "0x608060405234801561001057600080fd5b50604051610f5a380380610f5a833981810160405281019061003291906100db565b806000806101000a81548173ffffffffffffffffffffffffffffffffffffffff021916908373ffffffffffffffffffffffffffffffffffffffff16021790555050610108565b600080fd5b600073ffffffffffffffffffffffffffffffffffffffff82169050919050565b60006100a88261007d565b9050919050565b6100b88161009d565b81146100c357600080fd5b50565b6000815190506100d5816100af565b92915050565b6000602082840312156100f1576100f0610078565b5b60006100ff848285016100c6565b91505092915050565b610e43806101176000396000f3fe60806040526004361061004a5760003560e01c8063571a26a01461004f57806391e078bb146100905780639979ef45146100b9578063b9a2de3a146100d5578063bd4dc024146100fe575b600080fd5b34801561005b57600080fd5b50610076600480360381019061007191906108e3565b610129565b604051610087959493929190610960565b60405180910390f35b34801561009c57600080fd5b506100b760048036038101906100b291906109b3565b61019f565b005b6100d360048036038101906100ce91906108e3565b61040d565b005b3480156100e157600080fd5b506100fc60048036038101906100f791906108e3565b6105b7565b005b34801561010a57600080fd5b50610113610884565b6040516101209190610a65565b60405180910390f35b60016020528060005260406000206000915090508060000160009054906101000a900473ffffffffffffffffffffffffffffffffffffffff16908060010154908060020154908060030160009054906101000a900473ffffffffffffffffffffffffffffffffffffffff16908060040154905085565b3373ffffffffffffffffffffffffffffffffffffffff1660008054906101000a900473ffffffffffffffffffffffffffffffffffffffff1673ffffffffffffffffffffffffffffffffffffffff16636352211e856040518263ffffffff1660e01b815260040161020f9190610a80565b602060405180830381865afa15801561022c573d6000803e3d6000fd5b505050506040513d601f19601f820116820180604052508101906102509190610ac7565b73ffffffffffffffffffffffffffffffffffffffff16146102a6576040517f08c379a000000000000000000000000000000000000000000000000000000000815260040161029d90610b51565b60405180910390fd5b600081426102b49190610ba0565b90506040518060a001604052803373ffffffffffffffffffffffffffffffffffffffff16815260200184815260200160008152602001600073ffffffffffffffffffffffffffffffffffffffff168152602001828152506001600086815260200190815260200160002060008201518160000160006101000a81548173ffffffffffffffffffffffffffffffffffffffff021916908373ffffffffffffffffffffffffffffffffffffffff160217905550602082015181600101556040820151816002015560608201518160030160006101000a81548173ffffffffffffffffffffffffffffffffffffffff021916908373ffffffffffffffffffffffffffffffffffffffff16021790555060808201518160040155905050837f44c53be110c6aa83aa83cd02e351ed172359268272ee1b5d31c0fe48db35c6c784836040516103ff929190610bd4565b60405180910390a250505050565b60006001600083815260200190815260200160002090508060040154421061046a576040517f08c379a000000000000000000000000000000000000000000000000000000000815260040161046190610c49565b60405180910390fd5b806002015434116104b0576040517f08c379a00000000000000000000000000000000000000000000000000000000081526004016104a790610cb5565b60405180910390fd5b60008160020154111561052d578060030160009054906101000a900473ffffffffffffffffffffffffffffffffffffffff1673ffffffffffffffffffffffffffffffffffffffff166108fc82600201549081150290604051600060405180830381858888f1935050505015801561052b573d6000803e3d6000fd5b505b348160020181905550338160030160006101000a81548173ffffffffffffffffffffffffffffffffffffffff021916908373ffffffffffffffffffffffffffffffffffffffff160217905550817f558a0d5d5468d74b0db24c74eb348b42271c2ebb4c9e953ced38aaed95fa436133346040516105ab929190610cd5565b60405180910390a25050565b60006001600083815260200190815260200160002090508060040154421015610615576040517f08c379a000000000000000000000000000000000000000000000000000000000815260040161060c90610d4a565b60405180910390fd5b600081600201541161065c576040517f08c379a000000000000000000000000000000000000000000000000000000000815260040161065390610db6565b60405180910390fd5b60008054906101000a900473ffffffffffffffffffffffffffffffffffffffff1673ffffffffffffffffffffffffffffffffffffffff166323b872dd8260000160009054906101000a900473ffffffffffffffffffffffffffffffffffffffff168360030160009054906101000a900473ffffffffffffffffffffffffffffffffffffffff16856040518463ffffffff1660e01b815260040161070193929190610dd6565b600060405180830381600087803b15801561071b57600080fd5b505af115801561072f573d6000803e3d6000fd5b505050508060000160009054906101000a900473ffffffffffffffffffffffffffffffffffffffff1673ffffffffffffffffffffffffffffffffffffffff166108fc82600201549081150290604051600060405180830381858888f193505050501580156107a1573d6000803e3d6000fd5b50817fd2aa34a4fdbbc6dff6a3e56f46e0f3ae2a31d7785ff3487aa5c95c642acea5018260030160009054906101000a900473ffffffffffffffffffffffffffffffffffffffff1683600201546040516107fc929190610cd5565b60405180910390a260016000838152602001908152602001600020600080820160006101000a81549073ffffffffffffffffffffffffffffffffffffffff0219169055600182016000905560028201600090556003820160006101000a81549073ffffffffffffffffffffffffffffffffffffffff0219169055600482016000905550505050565b60008054906101000a900473ffffffffffffffffffffffffffffffffffffffff1681565b600080fd5b6000819050919050565b6108c0816108ad565b81146108cb57600080fd5b50565b6000813590506108dd816108b7565b92915050565b6000602082840312156108f9576108f86108a8565b5b6000610907848285016108ce565b91505092915050565b600073ffffffffffffffffffffffffffffffffffffffff82169050919050565b600061093b82610910565b9050919050565b61094b81610930565b82525050565b61095a816108ad565b82525050565b600060a0820190506109756000830188610942565b6109826020830187610951565b61098f6040830186610951565b61099c6060830185610942565b6109a96080830184610951565b9695505050505050565b6000806000606084860312156109cc576109cb6108a8565b5b60006109da868287016108ce565b93505060206109eb868287016108ce565b92505060406109fc868287016108ce565b9150509250925092565b6000819050919050565b6000610a2b610a26610a2184610910565b610a06565b610910565b9050919050565b6000610a3d82610a10565b9050919050565b6000610a4f82610a32565b9050919050565b610a5f81610a44565b82525050565b6000602082019050610a7a6000830184610a56565b92915050565b6000602082019050610a956000830184610951565b92915050565b610aa481610930565b8114610aaf57600080fd5b50565b600081519050610ac181610a9b565b92915050565b600060208284031215610add57610adc6108a8565b5b6000610aeb84828501610ab2565b91505092915050565b600082825260208201905092915050565b7f4e6f7420746865206f776e657200000000000000000000000000000000000000600082015250565b6000610b3b600d83610af4565b9150610b4682610b05565b602082019050919050565b60006020820190508181036000830152610b6a81610b2e565b9050919050565b7f4e487b7100000000000000000000000000000000000000000000000000000000600052601160045260246000fd5b6000610bab826108ad565b9150610bb6836108ad565b9250828201905080821115610bce57610bcd610b71565b5b92915050565b6000604082019050610be96000830185610951565b610bf66020830184610951565b9392505050565b7f41756374696f6e20656e64656400000000000000000000000000000000000000600082015250565b6000610c33600d83610af4565b9150610c3e82610bfd565b602082019050919050565b60006020820190508181036000830152610c6281610c26565b9050919050565b7f42696420746f6f206c6f77000000000000000000000000000000000000000000600082015250565b6000610c9f600b83610af4565b9150610caa82610c69565b602082019050919050565b60006020820190508181036000830152610cce81610c92565b9050919050565b6000604082019050610cea6000830185610942565b610cf76020830184610951565b9392505050565b7f41756374696f6e206f6e676f696e670000000000000000000000000000000000600082015250565b6000610d34600f83610af4565b9150610d3f82610cfe565b602082019050919050565b60006020820190508181036000830152610d6381610d27565b9050919050565b7f4e6f206269647320706c61636564000000000000000000000000000000000000600082015250565b6000610da0600e83610af4565b9150610dab82610d6a565b602082019050919050565b60006020820190508181036000830152610dcf81610d93565b9050919050565b6000606082019050610deb6000830186610942565b610df86020830185610942565b610e056040830184610951565b94935050505056fea264697066735822122086e7bc5b48538cc1e6738e09b1de7578775bfbaa522d02c4560cefa8ccfc593e64736f6c63430008140033",
  "linkReferences": {},
  "deployedLinkReferences": {}
}