{
  "_format": "hh-sol-artifact-1",
  "contractName": "LandRegistry",
  "sourceName": "contracts/LandRegistry.sol",
  "abi": [
    {
      "inputs": [],
      "stateMutability": "nonpayable",
      "type": "constructor"
    },
    {
      "inputs": [],
      "name": "ERC721EnumerableForbiddenBatchMint",
      "type": "error"
    },
    {
      "inputs": [
        {
          "internalType": "address",
          "name": "sender",
          "type": "address"
        },
        {
          "internalType": "uint256",
          "name": "tokenId",
          "type": "uint256"
        },
        {
          "internalType": "address",
          "name": "owner",
          "type": "address"
        }
      ],
      "name": "ERC721IncorrectOwner",
      "type": "error"
    },
    {
      "inputs": [
        {
          "internalType": "address",
          "name": "operator",
          "type": "address"
        },
        {
          "internalType": "uint256",
          "name": "tokenId",
          "type": "uint256"
        }
      ],
      "name": "ERC721InsufficientApproval",
      "type": "error"
    },
    {
      "inputs": [
        {
          "internalType": "address",
          "name": "approver",
          "type": "address"
        }
      ],
      "name": "ERC721InvalidApprover",
      "type": "error"
    },
    {
      "inputs": [
        {
          "internalType": "address",
          "name": "operator",
          "type": "address"
        }
      ],
      "name": "ERC721InvalidOperator",
      "type": "error"
    },
    {
      "inputs": [
        {
          "internalType": "address",
          "name": "owner",
          "type": "address"
        }
      ],
      "name": "ERC721InvalidOwner",
      "type": "error"
    },
    {
      "inputs": [
        {
          "internalType": "address",
          "name": "receiver",
          "type": "address"
        }
      ],
      "name": "ERC721InvalidReceiver",
      "type": "error"
    },
    {
      "inputs": [
        {
          "internalType": "address",
          "name": "sender",
          "type": "address"
        }
      ],
      "name": "ERC721InvalidSender",
      "type": "error"
    },
    {
      "inputs": [
        {
          "internalType": "uint256",
          "name": "tokenId",
          "type": "uint256"
        }
      ],
      "name": "ERC721NonexistentToken",
      "type": "error"
    },
    {
      "inputs": [
        {
          "internalType": "address",
          "name": "owner",
          "type": "address"
        },
        {
          "internalType": "uint256",
          "name": "index",
          "type": "uint256"
        }
      ],
      "name": "ERC721OutOfBoundsIndex",
      "type": "error"
    },
    {
      "inputs": [
        {
          "internalType": "address",
          "name": "owner",
          "type": "address"
        }
      ],
      "name": "OwnableInvalidOwner",
      "type": "error"
    },
    {
      "inputs": [
        {
          "internalType": "address",
          "name": "account",
          "type": "address"
        }
      ],
      "name": "OwnableUnauthorizedAccount",
      "type": "error"
    },
    {
      "anonymous": false,
      "inputs": [
        {
          "indexed": true,
          "internalType": "address",
          "name": "owner",
          "type": "address"
        },
        {
          "indexed": true,
          "internalType": "address",
          "name": "approved",
          "type": "address"
        },
        {
          "indexed": true,
          "internalType": "uint256",
          "name": "tokenId",
          "type": "uint256"
        }
      ],
      "name": "Approval",
      "type": "event"
    },
    {
      "anonymous": false,
      "inputs": [
        {
          "indexed": true,
          "internalType": "address",
          "name": "owner",
          "type": "address"
        },
        {
          "indexed": true,
          "internalType": "address",
          "name": "operator",
          "type": "address"
        },
        {
          "indexed": false,
          "internalType": "bool",
          "name": "approved",
          "type": "bool"
        }
      ],
      "name": "ApprovalForAll",
      "type": "event"
    },
    {
      "anonymous": false,
      "inputs": [
        {
          "indexed": true,
          "internalType": "string",
          "name": "landId",
          "type": "string"
        },
        {
          "indexed": false,
          "internalType": "string",
          "name": "price",
          "type": "string"
        }
      ],
      "name": "LandListedForSale",
      "type": "event"
    },
    {
      "anonymous": false,
      "inputs": [
        {
          "indexed": true,
          "internalType": "string",
          "name": "landId",
          "type": "string"
        },
        {
          "indexed": true,
          "internalType": "address",
          "name": "owner",
          "type": "address"
        }
      ],
      "name": "LandMinted",
      "type": "event"
    },
    {
      "anonymous": false,
      "inputs": [
        {
          "indexed": true,
          "internalType": "string",
          "name": "landId",
          "type": "string"
        }
      ],
      "name": "LandSaleCancelled",
      "type": "event"
    },
    {
      "anonymous": false,
      "inputs": [
        {
          "indexed": true,
          "internalType": "string",
          "name": "landId",
          "type": "string"
        },
        {
          "indexed": true,
          "internalType": "address",
          "name": "newOwner",
          "type": "address"
        }
      ],
      "name": "LandSold",
      "type": "event"
    },
    {
      "anonymous": false,
      "inputs": [
        {
          "indexed": true,
          "internalType": "string",
          "name": "landId",
          "type": "string"
        },
        {
          "indexed": true,
          "internalType": "address",
          "name": "newOwner",
          "type": "address"
        }
      ],
      "name": "LandTransferred",
      "type": "event"
    },
    {
      "anonymous": false,
      "inputs": [
        {
          "indexed": true,
          "internalType": "address",
          "name": "previousOwner",
          "type": "address"
        },
        {
          "indexed": true,
          "internalType": "address",
          "name": "newOwner",
          "type": "address"
        }
      ],
      "name": "OwnershipTransferred",
      "type": "event"
    },
    {
      "anonymous": false,
      "inputs": [
        {
          "indexed": true,
          "internalType": "address",
          "name": "from",
          "type": "address"
        },
        {
          "indexed": true,
          "internalType": "address",
          "name": "to",
          "type": "address"
        },
        {
          "indexed": true,
          "internalType": "uint256",
          "name": "tokenId",
          "type": "uint256"
        }
      ],
      "name": "Transfer",
      "type": "event"
    },
    {
      "inputs": [
        {
          "internalType": "address",
          "name": "to",
          "type": "address"
        },
        {
          "internalType": "uint256",
          "name": "tokenId",
          "type": "uint256"
        }
      ],
      "name": "approve",
      "outputs": [],
      "stateMutability": "nonpayable",
      "type": "function"
    },
    {
      "inputs": [
        {
          "internalType": "address",
          "name": "owner",
          "type": "address"
        }
      ],
      "name": "balanceOf",
      "outputs": [
        {
          "internalType": "uint256",
          "name": "",
          "type": "uint256"
        }
      ],
      "stateMutability": "view",
      "type": "function"
    },
    {
      "inputs": [
        {
          "internalType": "uint256",
          "name": "tokenId",
          "type": "uint256"
        }
      ],
      "name": "getApproved",
      "outputs": [
        {
          "internalType": "address",
          "name": "",
          "type": "address"
        }
      ],
      "stateMutability": "view",
      "type": "function"
    },
    {
      "inputs": [
        {
          "internalType": "string",
          "name": "landId",
          "type": "string"
        }
      ],
      "name": "getLand",
      "outputs": [
        {
          "components": [
            {
              "internalType": "string",
              "name": "landId",
              "type": "string"
            },
            {
              "internalType": "address",
              "name": "owner",
              "type": "address"
            },
            {
              "internalType": "string",
              "name": "location",
              "type": "string"
            },
            {
              "internalType": "string",
              "name": "state",
              "type": "string"
            },
            {
              "internalType": "string",
              "name": "city",
              "type": "string"
            },
            {
              "internalType": "uint256",
              "name": "area",
              "type": "uint256"
            },
            {
              "internalType": "string",
              "name": "areaInCent",
              "type": "string"
            },
            {
              "internalType": "string",
              "name": "areaInSqft",
              "type": "string"
            },
            {
              "components": [
                {
                  "internalType": "uint256",
                  "name": "date",
                  "type": "uint256"
                },
                {
                  "internalType": "address",
                  "name": "owner",
                  "type": "address"
                }
              ],
              "internalType": "struct LandRegistry.OwnershipHistory[]",
              "name": "history",
              "type": "tuple[]"
            }
          ],
          "internalType": "struct LandRegistry.LandDetails",
          "name": "",
          "type": "tuple"
        }
      ],
      "stateMutability": "view",
      "type": "function"
    },
    {
      "inputs": [
        {
          "internalType": "address",
          "name": "_owner",
          "type": "address"
        }
      ],
      "name": "getLandsByOwner",
      "outputs": [
        {
          "components": [
            {
              "internalType": "string",
              "name": "landId",
              "type": "string"
            },
            {
              "internalType": "address",
              "name": "owner",
              "type": "address"
            },
            {
              "internalType": "string",
              "name": "location",
              "type": "string"
            },
            {
              "internalType": "string",
              "name": "state",
              "type": "string"
            },
            {
              "internalType": "string",
              "name": "city",
              "type": "string"
            },
            {
              "internalType": "uint256",
              "name": "area",
              "type": "uint256"
            },
            {
              "internalType": "string",
              "name": "areaInCent",
              "type": "string"
            },
            {
              "internalType": "string",
              "name": "areaInSqft",
              "type": "string"
            },
            {
              "components": [
                {
                  "internalType": "uint256",
                  "name": "date",
                  "type": "uint256"
                },
                {
                  "internalType": "address",
                  "name": "owner",
                  "type": "address"
                }
              ],
              "internalType": "struct LandRegistry.OwnershipHistory[]",
              "name": "history",
              "type": "tuple[]"
            }
          ],
          "internalType": "struct LandRegistry.LandDetails[]",
          "name": "",
          "type": "tuple[]"
        }
      ],
      "stateMutability": "view",
      "type": "function"
    },
    {
      "inputs": [
        {
          "internalType": "address",
          "name": "owner",
          "type": "address"
        },
        {
          "internalType": "address",
          "name": "operator",
          "type": "address"
        }
      ],
      "name": "isApprovedForAll",
      "outputs": [
        {
          "internalType": "bool",
          "name": "",
          "type": "bool"
        }
      ],
      "stateMutability": "view",
      "type": "function"
    },
    {
      "inputs": [
        {
          "internalType": "string",
          "name": "",
          "type": "string"
        }
      ],
      "name": "landRegistry",
      "outputs": [
        {
          "internalType": "string",
          "name": "landId",
          "type": "string"
        },
        {
          "internalType": "address",
          "name": "owner",
          "type": "address"
        },
        {
          "internalType": "string",
          "name": "location",
          "type": "string"
        },
        {
          "internalType": "string",
          "name": "state",
          "type": "string"
        },
        {
          "internalType": "string",
          "name": "city",
          "type": "string"
        },
        {
          "internalType": "uint256",
          "name": "area",
          "type": "uint256"
        },
        {
          "internalType": "string",
          "name": "areaInCent",
          "type": "string"
        },
        {
          "internalType": "string",
          "name": "areaInSqft",
          "type": "string"
        }
      ],
      "stateMutability": "view",
      "type": "function"
    },
    {
      "inputs": [
        {
          "internalType": "string",
          "name": "",
          "type": "string"
        }
      ],
      "name": "marketplace",
      "outputs": [
        {
          "internalType": "string",
          "name": "landId",
          "type": "string"
        },
        {
          "internalType": "address",
          "name": "seller",
          "type": "address"
        },
        {
          "internalType": "string",
          "name": "ratePerCent",
          "type": "string"
        },
        {
          "internalType": "string",
          "name": "totalPrice",
          "type": "string"
        },
        {
          "internalType": "bool",
          "name": "isForSale",
          "type": "bool"
        }
      ],
      "stateMutability": "view",
      "type": "function"
    },
    {
      "inputs": [
        {
          "internalType": "address",
          "name": "owner",
          "type": "address"
        },
        {
          "internalType": "string",
          "name": "landId",
          "type": "string"
        },
        {
          "internalType": "string",
          "name": "location",
          "type": "string"
        },
        {
          "internalType": "string",
          "name": "state",
          "type": "string"
        },
        {
          "internalType": "string",
          "name": "city",
          "type": "string"
        },
        {
          "internalType": "uint256",
          "name": "area",
          "type": "uint256"
        },
        {
          "internalType": "string",
          "name": "areaInCent",
          "type": "string"
        },
        {
          "internalType": "string",
          "name": "areaInSqft",
          "type": "string"
        }
      ],
      "name": "mintLand",
      "outputs": [],
      "stateMutability": "nonpayable",
      "type": "function"
    },
    {
      "inputs": [],
      "name": "name",
      "outputs": [
        {
          "internalType": "string",
          "name": "",
          "type": "string"
        }
      ],
      "stateMutability": "view",
      "type": "function"
    },
    {
      "inputs": [],
      "name": "owner",
      "outputs": [
        {
          "internalType": "address",
          "name": "",
          "type": "address"
        }
      ],
      "stateMutability": "view",
      "type": "function"
    },
    {
      "inputs": [
        {
          "internalType": "uint256",
          "name": "tokenId",
          "type": "uint256"
        }
      ],
      "name": "ownerOf",
      "outputs": [
        {
          "internalType": "address",
          "name": "",
          "type": "address"
        }
      ],
      "stateMutability": "view",
      "type": "function"
    },
    {
      "inputs": [],
      "name": "renounceOwnership",
      "outputs": [],
      "stateMutability": "nonpayable",
      "type": "function"
    },
    {
      "inputs": [
        {
          "internalType": "address",
          "name": "from",
          "type": "address"
        },
        {
          "internalType": "address",
          "name": "to",
          "type": "address"
        },
        {
          "internalType": "uint256",
          "name": "tokenId",
          "type": "uint256"
        }
      ],
      "name": "safeTransferFrom",
      "outputs": [],
      "stateMutability": "nonpayable",
      "type": "function"
    },
    {
      "inputs": [
        {
          "internalType": "address",
          "name": "from",
          "type": "address"
        },
        {
          "internalType": "address",
          "name": "to",
          "type": "address"
        },
        {
          "internalType": "uint256",
          "name": "tokenId",
          "type": "uint256"
        },
        {
          "internalType": "bytes",
          "name": "data",
          "type": "bytes"
        }
      ],
      "name": "safeTransferFrom",
      "outputs": [],
      "stateMutability": "nonpayable",
      "type": "function"
    },
    {
      "inputs": [
        {
          "internalType": "address",
          "name": "operator",
          "type": "address"
        },
        {
          "internalType": "bool",
          "name": "approved",
          "type": "bool"
        }
      ],
      "name": "setApprovalForAll",
      "outputs": [],
      "stateMutability": "nonpayable",
      "type": "function"
    },
    {
      "inputs": [
        {
          "internalType": "bytes4",
          "name": "interfaceId",
          "type": "bytes4"
        }
      ],
      "name": "supportsInterface",
      "outputs": [
        {
          "internalType": "bool",
          "name": "",
          "type": "bool"
        }
      ],
      "stateMutability": "view",
      "type": "function"
    },
    {
      "inputs": [],
      "name": "symbol",
      "outputs": [
        {
          "internalType": "string",
          "name": "",
          "type": "string"
        }
      ],
      "stateMutability": "view",
      "type": "function"
    },
    {
      "inputs": [
        {
          "internalType": "uint256",
          "name": "index",
          "type": "uint256"
        }
      ],
      "name": "tokenByIndex",
      "outputs": [
        {
          "internalType": "uint256",
          "name": "",
          "type": "uint256"
        }
      ],
      "stateMutability": "view",
      "type": "function"
    },
    {
      "inputs": [
        {
          "internalType": "address",
          "name": "owner",
          "type": "address"
        },
        {
          "internalType": "uint256",
          "name": "index",
          "type": "uint256"
        }
      ],
      "name": "tokenOfOwnerByIndex",
      "outputs": [
        {
          "internalType": "uint256",
          "name": "",
          "type": "uint256"
        }
      ],
      "stateMutability": "view",
      "type": "function"
    },
    {
      "inputs": [
        {
          "internalType": "uint256",
          "name": "tokenId",
          "type": "uint256"
        }
      ],
      "name": "tokenURI",
      "outputs": [
        {
          "internalType": "string",
          "name": "",
          "type": "string"
        }
      ],
      "stateMutability": "view",
      "type": "function"
    },
    {
      "inputs": [],
      "name": "totalSupply",
      "outputs": [
        {
          "internalType": "uint256",
          "name": "",
          "type": "uint256"
        }
      ],
      "stateMutability": "view",
      "type": "function"
    },
    {
      "inputs": [
        {
          "internalType": "address",
          "name": "from",
          "type": "address"
        },
        {
          "internalType": "address",
          "name": "to",
          "type": "address"
        },
        {
          "internalType": "uint256",
          "name": "tokenId",
          "type": "uint256"
        }
      ],
      "name": "transferFrom",
      "outputs": [],
      "stateMutability": "nonpayable",
      "type": "function"
    },
    {
      "inputs": [
        {
          "internalType": "string",
          "name": "landId",
          "type": "string"
        },
        {
          "internalType": "address",
          "name": "newOwner",
          "type": "address"
        }
      ],
      "name": "transferLand",
      "outputs": [],
      "stateMutability": "nonpayable",
      "type": "function"
    },
    {
      "inputs": [
        {
          "internalType": "address",
          "name": "newOwner",
          "type": "address"
        }
      ],
      "name": "transferOwnership",
      "outputs": [],
      "stateMutability": "nonpayable",
      "type": "function"
    }
  ],
  "bytecode": "0x608060405234801561001057600080fd5b50336040518060400160405280600781526020017f4c616e644e4654000000000000000000000000000000000000000000000000008152506040518060400160405280600481526020017f4c414e4400000000000000000000000000000000000000000000000000000000815250816000908161008d919061043d565b50806001908161009d919061043d565b505050600073ffffffffffffffffffffffffffffffffffffffff168173ffffffffffffffffffffffffffffffffffffffff16036101125760006040517f1e4fbdf70000000000000000000000000000000000000000000000000000000081526004016101099190610550565b60405180910390fd5b6101218161012760201b60201c565b5061056b565b6000600a60009054906101000a900473ffffffffffffffffffffffffffffffffffffffff16905081600a60006101000a81548173ffffffffffffffffffffffffffffffffffffffff021916908373ffffffffffffffffffffffffffffffffffffffff1602179055508173ffffffffffffffffffffffffffffffffffffffff168173ffffffffffffffffffffffffffffffffffffffff167f8be0079c531659141344cd1fd0a4f28419497f9722a3daafe3b4186f6b6457e060405160405180910390a35050565b600081519050919050565b7f4e487b7100000000000000000000000000000000000000000000000000000000600052604160045260246000fd5b7f4e487b7100000000000000000000000000000000000000000000000000000000600052602260045260246000fd5b6000600282049050600182168061026e57607f821691505b60208210810361028157610280610227565b5b50919050565b60008190508160005260206000209050919050565b60006020601f8301049050919050565b600082821b905092915050565b6000600883026102e97fffffffffffffffffffffffffffffffffffffffffffffffffffffffffffffffff826102ac565b6102f386836102ac565b95508019841693508086168417925050509392505050565b6000819050919050565b6000819050919050565b600061033a6103356103308461030b565b610315565b61030b565b9050919050565b6000819050919050565b6103548361031f565b61036861036082610341565b8484546102b9565b825550505050565b600090565b61037d610370565b61038881848461034b565b505050565b5b818110156103ac576103a1600082610375565b60018101905061038e565b5050565b601f8211156103f1576103c281610287565b6103cb8461029c565b810160208510156103da578190505b6103ee6103e68561029c565b83018261038d565b50505b505050565b600082821c905092915050565b6000610414600019846008026103f6565b1980831691505092915050565b600061042d8383610403565b9150826002028217905092915050565b610446826101ed565b67ffffffffffffffff81111561045f5761045e6101f8565b5b6104698254610256565b6104748282856103b0565b600060209050601f8311600181146104a75760008415610495578287015190505b61049f8582610421565b865550610507565b601f1984166104b586610287565b60005b828110156104dd578489015182556001820191506020850194506020810190506104b8565b868310156104fa57848901516104f6601f891682610403565b8355505b6001600288020188555050505b505050505050565b600073ffffffffffffffffffffffffffffffffffffffff82169050919050565b600061053a8261050f565b9050919050565b61054a8161052f565b82525050565b60006020820190506105656000830184610541565b92915050565b6149ee8061057a6000396000f3fe608060405234801561001057600080fd5b50600436106101735760003560e01c806359d08bbf116100de57806395d89b4111610097578063c87b56dd11610071578063c87b56dd1461048d578063e7310755146104bd578063e985e9c5146104d9578063f2fde38b1461050957610173565b806395d89b4114610437578063a22cb46514610455578063b88d4fde1461047157610173565b806359d08bbf146103485780636352211e1461037f5780636c844a7b146103af57806370a08231146103df578063715018a61461040f5780638da5cb5b1461041957610173565b80632f745c59116101305780632f745c591461024c57806332d5ca411461027c57806342842e0e14610298578063430f6ce2146102b4578063455b9d23146102e85780634f6ccce71461031857610173565b806301ffc9a71461017857806306fdde03146101a8578063081812fc146101c6578063095ea7b3146101f657806318160ddd1461021257806323b872dd14610230575b600080fd5b610192600480360381019061018d9190613650565b610525565b60405161019f9190613698565b60405180910390f35b6101b061059f565b6040516101bd9190613743565b60405180910390f35b6101e060048036038101906101db919061379b565b610631565b6040516101ed9190613809565b60405180910390f35b610210600480360381019061020b9190613850565b61064d565b005b61021a610663565b604051610227919061389f565b60405180910390f35b61024a600480360381019061024591906138ba565b610670565b005b61026660048036038101906102619190613850565b610772565b604051610273919061389f565b60405180910390f35b61029660048036038101906102919190613a42565b61081b565b005b6102b260048036038101906102ad91906138ba565b610b19565b005b6102ce60048036038101906102c99190613ba0565b610b39565b6040516102df959493929190613be9565b60405180910390f35b61030260048036038101906102fd9190613c51565b610d4a565b60405161030f9190613f75565b60405180910390f35b610332600480360381019061032d919061379b565b6113f2565b60405161033f919061389f565b60405180910390f35b610362600480360381019061035d9190613ba0565b611468565b604051610376989796959493929190613f97565b60405180910390f35b6103996004803603810190610394919061379b565b611816565b6040516103a69190613809565b60405180910390f35b6103c960048036038101906103c49190613ba0565b611828565b6040516103d6919061412e565b60405180910390f35b6103f960048036038101906103f49190613c51565b611d5c565b604051610406919061389f565b60405180910390f35b610417611e16565b005b610421611e2a565b60405161042e9190613809565b60405180910390f35b61043f611e54565b60405161044c9190613743565b60405180910390f35b61046f600480360381019061046a919061417c565b611ee6565b005b61048b6004803603810190610486919061425d565b611efc565b005b6104a760048036038101906104a2919061379b565b611f21565b6040516104b49190613743565b60405180910390f35b6104d760048036038101906104d291906142e0565b611f8a565b005b6104f360048036038101906104ee919061433c565b61210f565b6040516105009190613698565b60405180910390f35b610523600480360381019061051e9190613c51565b6121a3565b005b60007f780e9d63000000000000000000000000000000000000000000000000000000007bffffffffffffffffffffffffffffffffffffffffffffffffffffffff1916827bffffffffffffffffffffffffffffffffffffffffffffffffffffffff19161480610598575061059782612229565b5b9050919050565b6060600080546105ae906143ab565b80601f01602080910402602001604051908101604052809291908181526020018280546105da906143ab565b80156106275780601f106105fc57610100808354040283529160200191610627565b820191906000526020600020905b81548152906001019060200180831161060a57829003601f168201915b5050505050905090565b600061063c8261230b565b5061064682612393565b9050919050565b61065f828261065a6123d0565b6123d8565b5050565b6000600880549050905090565b600073ffffffffffffffffffffffffffffffffffffffff168273ffffffffffffffffffffffffffffffffffffffff16036106e25760006040517f64a0ae920000000000000000000000000000000000000000000000000000000081526004016106d99190613809565b60405180910390fd5b60006106f683836106f16123d0565b6123ea565b90508373ffffffffffffffffffffffffffffffffffffffff168173ffffffffffffffffffffffffffffffffffffffff161461076c578382826040517f64283d7b000000000000000000000000000000000000000000000000000000008152600401610763939291906143dc565b60405180910390fd5b50505050565b600061077d83611d5c565b82106107c25782826040517fa57d13dc0000000000000000000000000000000000000000000000000000000081526004016107b9929190614413565b60405180910390fd5b600660008473ffffffffffffffffffffffffffffffffffffffff1673ffffffffffffffffffffffffffffffffffffffff168152602001908152602001600020600083815260200190815260200160002054905092915050565b61084e88886040516020016108309190614478565b6040516020818303038152906040528051906020012060001c612507565b86600b8860405161085f9190614478565b9081526020016040518091039020600001908161087c919061463b565b5087600b8860405161088e9190614478565b908152602001604051809103902060010160006101000a81548173ffffffffffffffffffffffffffffffffffffffff021916908373ffffffffffffffffffffffffffffffffffffffff16021790555085600b886040516108ee9190614478565b9081526020016040518091039020600201908161090b919061463b565b5084600b8860405161091d9190614478565b9081526020016040518091039020600301908161093a919061463b565b5083600b8860405161094c9190614478565b90815260200160405180910390206004019081610969919061463b565b5082600b8860405161097b9190614478565b90815260200160405180910390206005018190555081600b886040516109a19190614478565b908152602001604051809103902060060190816109be919061463b565b5080600b886040516109d09190614478565b908152602001604051809103902060070190816109ed919061463b565b50600b876040516109fe9190614478565b908152602001604051809103902060080160405180604001604052804281526020018a73ffffffffffffffffffffffffffffffffffffffff1681525090806001815401808255809150506001900390600052602060002090600202016000909190919091506000820151816000015560208201518160010160006101000a81548173ffffffffffffffffffffffffffffffffffffffff021916908373ffffffffffffffffffffffffffffffffffffffff16021790555050508773ffffffffffffffffffffffffffffffffffffffff1687604051610adb9190614478565b60405180910390207f792dd1aae013468e087b267892a1b7e4456033d6e838800af6644859d7a3cd5860405160405180910390a35050505050505050565b610b3483838360405180602001604052806000815250611efc565b505050565b600c81805160208101820180518482526020830160208501208183528095505050505050600091509050806000018054610b72906143ab565b80601f0160208091040260200160405190810160405280929190818152602001828054610b9e906143ab565b8015610beb5780601f10610bc057610100808354040283529160200191610beb565b820191906000526020600020905b815481529060010190602001808311610bce57829003601f168201915b5050505050908060010160009054906101000a900473ffffffffffffffffffffffffffffffffffffffff1690806002018054610c26906143ab565b80601f0160208091040260200160405190810160405280929190818152602001828054610c52906143ab565b8015610c9f5780601f10610c7457610100808354040283529160200191610c9f565b820191906000526020600020905b815481529060010190602001808311610c8257829003601f168201915b505050505090806003018054610cb4906143ab565b80601f0160208091040260200160405190810160405280929190818152602001828054610ce0906143ab565b8015610d2d5780601f10610d0257610100808354040283529160200191610d2d565b820191906000526020600020905b815481529060010190602001808311610d1057829003601f168201915b5050505050908060040160009054906101000a900460ff16905085565b60606000610d56610663565b90506000808267ffffffffffffffff811115610d7557610d74613917565b5b604051908082528060200260200182016040528015610dae57816020015b610d9b613582565b815260200190600190039081610d935790505b50905060005b8381101561133b576000610dc7826113f2565b90506000610dd482611f21565b90508773ffffffffffffffffffffffffffffffffffffffff16600b82604051610dfd9190614478565b908152602001604051809103902060010160009054906101000a900473ffffffffffffffffffffffffffffffffffffffff1673ffffffffffffffffffffffffffffffffffffffff160361132c57600b81604051610e5a9190614478565b908152602001604051809103902060405180610120016040529081600082018054610e84906143ab565b80601f0160208091040260200160405190810160405280929190818152602001828054610eb0906143ab565b8015610efd5780601f10610ed257610100808354040283529160200191610efd565b820191906000526020600020905b815481529060010190602001808311610ee057829003601f168201915b505050505081526020016001820160009054906101000a900473ffffffffffffffffffffffffffffffffffffffff1673ffffffffffffffffffffffffffffffffffffffff1673ffffffffffffffffffffffffffffffffffffffff168152602001600282018054610f6c906143ab565b80601f0160208091040260200160405190810160405280929190818152602001828054610f98906143ab565b8015610fe55780601f10610fba57610100808354040283529160200191610fe5565b820191906000526020600020905b815481529060010190602001808311610fc857829003601f168201915b50505050508152602001600382018054610ffe906143ab565b80601f016020809104026020016040519081016040528092919081815260200182805461102a906143ab565b80156110775780601f1061104c57610100808354040283529160200191611077565b820191906000526020600020905b81548152906001019060200180831161105a57829003601f168201915b50505050508152602001600482018054611090906143ab565b80601f01602080910402602001604051908101604052809291908181526020018280546110bc906143ab565b80156111095780601f106110de57610100808354040283529160200191611109565b820191906000526020600020905b8154815290600101906020018083116110ec57829003601f168201915b505050505081526020016005820154815260200160068201805461112c906143ab565b80601f0160208091040260200160405190810160405280929190818152602001828054611158906143ab565b80156111a55780601f1061117a576101008083540402835291602001916111a5565b820191906000526020600020905b81548152906001019060200180831161118857829003601f168201915b505050505081526020016007820180546111be906143ab565b80601f01602080910402602001604051908101604052809291908181526020018280546111ea906143ab565b80156112375780601f1061120c57610100808354040283529160200191611237565b820191906000526020600020905b81548152906001019060200180831161121a57829003601f168201915b5050505050815260200160088201805480602002602001604051908101604052809291908181526020016000905b828210156112f75783829060005260206000209060020201604051806040016040529081600082015481526020016001820160009054906101000a900473ffffffffffffffffffffffffffffffffffffffff1673ffffffffffffffffffffffffffffffffffffffff1673ffffffffffffffffffffffffffffffffffffffff168152505081526020019060010190611265565b50505050815250508486815181106113125761131161470d565b5b602002602001018190525084806113289061476b565b9550505b50508080600101915050610db4565b5060008267ffffffffffffffff81111561135857611357613917565b5b60405190808252806020026020018201604052801561139157816020015b61137e613582565b8152602001906001900390816113765790505b50905060005b838110156113e5578281815181106113b2576113b161470d565b5b60200260200101518282815181106113cd576113cc61470d565b5b60200260200101819052508080600101915050611397565b5080945050505050919050565b60006113fc610663565b8210611442576000826040517fa57d13dc000000000000000000000000000000000000000000000000000000008152600401611439929190614413565b60405180910390fd5b600882815481106114565761145561470d565b5b90600052602060002001549050919050565b600b818051602081018201805184825260208301602085012081835280955050505050506000915090508060000180546114a1906143ab565b80601f01602080910402602001604051908101604052809291908181526020018280546114cd906143ab565b801561151a5780601f106114ef5761010080835404028352916020019161151a565b820191906000526020600020905b8154815290600101906020018083116114fd57829003601f168201915b5050505050908060010160009054906101000a900473ffffffffffffffffffffffffffffffffffffffff1690806002018054611555906143ab565b80601f0160208091040260200160405190810160405280929190818152602001828054611581906143ab565b80156115ce5780601f106115a3576101008083540402835291602001916115ce565b820191906000526020600020905b8154815290600101906020018083116115b157829003601f168201915b5050505050908060030180546115e3906143ab565b80601f016020809104026020016040519081016040528092919081815260200182805461160f906143ab565b801561165c5780601f106116315761010080835404028352916020019161165c565b820191906000526020600020905b81548152906001019060200180831161163f57829003601f168201915b505050505090806004018054611671906143ab565b80601f016020809104026020016040519081016040528092919081815260200182805461169d906143ab565b80156116ea5780601f106116bf576101008083540402835291602001916116ea565b820191906000526020600020905b8154815290600101906020018083116116cd57829003601f168201915b505050505090806005015490806006018054611705906143ab565b80601f0160208091040260200160405190810160405280929190818152602001828054611731906143ab565b801561177e5780601f106117535761010080835404028352916020019161177e565b820191906000526020600020905b81548152906001019060200180831161176157829003601f168201915b505050505090806007018054611793906143ab565b80601f01602080910402602001604051908101604052809291908181526020018280546117bf906143ab565b801561180c5780601f106117e15761010080835404028352916020019161180c565b820191906000526020600020905b8154815290600101906020018083116117ef57829003601f168201915b5050505050905088565b60006118218261230b565b9050919050565b611830613582565b6000600b836040516118429190614478565b9081526020016040518091039020600001805461185e906143ab565b9050116118a0576040517f08c379a0000000000000000000000000000000000000000000000000000000008152600401611897906147ff565b60405180910390fd5b600b826040516118b09190614478565b9081526020016040518091039020604051806101200160405290816000820180546118da906143ab565b80601f0160208091040260200160405190810160405280929190818152602001828054611906906143ab565b80156119535780601f1061192857610100808354040283529160200191611953565b820191906000526020600020905b81548152906001019060200180831161193657829003601f168201915b505050505081526020016001820160009054906101000a900473ffffffffffffffffffffffffffffffffffffffff1673ffffffffffffffffffffffffffffffffffffffff1673ffffffffffffffffffffffffffffffffffffffff1681526020016002820180546119c2906143ab565b80601f01602080910402602001604051908101604052809291908181526020018280546119ee906143ab565b8015611a3b5780601f10611a1057610100808354040283529160200191611a3b565b820191906000526020600020905b815481529060010190602001808311611a1e57829003601f168201915b50505050508152602001600382018054611a54906143ab565b80601f0160208091040260200160405190810160405280929190818152602001828054611a80906143ab565b8015611acd5780601f10611aa257610100808354040283529160200191611acd565b820191906000526020600020905b815481529060010190602001808311611ab057829003601f168201915b50505050508152602001600482018054611ae6906143ab565b80601f0160208091040260200160405190810160405280929190818152602001828054611b12906143ab565b8015611b5f5780601f10611b3457610100808354040283529160200191611b5f565b820191906000526020600020905b815481529060010190602001808311611b4257829003601f168201915b5050505050815260200160058201548152602001600682018054611b82906143ab565b80601f0160208091040260200160405190810160405280929190818152602001828054611bae906143ab565b8015611bfb5780601f10611bd057610100808354040283529160200191611bfb565b820191906000526020600020905b815481529060010190602001808311611bde57829003601f168201915b50505050508152602001600782018054611c14906143ab565b80601f0160208091040260200160405190810160405280929190818152602001828054611c40906143ab565b8015611c8d5780601f10611c6257610100808354040283529160200191611c8d565b820191906000526020600020905b815481529060010190602001808311611c7057829003601f168201915b5050505050815260200160088201805480602002602001604051908101604052809291908181526020016000905b82821015611d4d5783829060005260206000209060020201604051806040016040529081600082015481526020016001820160009054906101000a900473ffffffffffffffffffffffffffffffffffffffff1673ffffffffffffffffffffffffffffffffffffffff1673ffffffffffffffffffffffffffffffffffffffff168152505081526020019060010190611cbb565b50505050815250509050919050565b60008073ffffffffffffffffffffffffffffffffffffffff168273ffffffffffffffffffffffffffffffffffffffff1603611dcf5760006040517f89c62b64000000000000000000000000000000000000000000000000000000008152600401611dc69190613809565b60405180910390fd5b600360008373ffffffffffffffffffffffffffffffffffffffff1673ffffffffffffffffffffffffffffffffffffffff168152602001908152602001600020549050919050565b611e1e612525565b611e2860006125ac565b565b6000600a60009054906101000a900473ffffffffffffffffffffffffffffffffffffffff16905090565b606060018054611e63906143ab565b80601f0160208091040260200160405190810160405280929190818152602001828054611e8f906143ab565b8015611edc5780601f10611eb157610100808354040283529160200191611edc565b820191906000526020600020905b815481529060010190602001808311611ebf57829003601f168201915b5050505050905090565b611ef8611ef16123d0565b8383612672565b5050565b611f07848484610670565b611f1b611f126123d0565b858585856127e1565b50505050565b6060611f2c8261230b565b506000611f37612992565b90506000815111611f575760405180602001604052806000815250611f82565b80611f61846129a9565b604051602001611f7292919061481f565b6040516020818303038152906040525b915050919050565b80600b83604051611f9b9190614478565b908152602001604051809103902060010160006101000a81548173ffffffffffffffffffffffffffffffffffffffff021916908373ffffffffffffffffffffffffffffffffffffffff160217905550600b82604051611ffa9190614478565b908152602001604051809103902060080160405180604001604052804281526020018373ffffffffffffffffffffffffffffffffffffffff1681525090806001815401808255809150506001900390600052602060002090600202016000909190919091506000820151816000015560208201518160010160006101000a81548173ffffffffffffffffffffffffffffffffffffffff021916908373ffffffffffffffffffffffffffffffffffffffff16021790555050508073ffffffffffffffffffffffffffffffffffffffff16826040516120d79190614478565b60405180910390207f516a84499c3ca21ca8c45f4b01137649c7a6bd74daa4242a44cfb801e418d2a560405160405180910390a35050565b6000600560008473ffffffffffffffffffffffffffffffffffffffff1673ffffffffffffffffffffffffffffffffffffffff16815260200190815260200160002060008373ffffffffffffffffffffffffffffffffffffffff1673ffffffffffffffffffffffffffffffffffffffff16815260200190815260200160002060009054906101000a900460ff16905092915050565b6121ab612525565b600073ffffffffffffffffffffffffffffffffffffffff168173ffffffffffffffffffffffffffffffffffffffff160361221d5760006040517f1e4fbdf70000000000000000000000000000000000000000000000000000000081526004016122149190613809565b60405180910390fd5b612226816125ac565b50565b60007f80ac58cd000000000000000000000000000000000000000000000000000000007bffffffffffffffffffffffffffffffffffffffffffffffffffffffff1916827bffffffffffffffffffffffffffffffffffffffffffffffffffffffff191614806122f457507f5b5e139f000000000000000000000000000000000000000000000000000000007bffffffffffffffffffffffffffffffffffffffffffffffffffffffff1916827bffffffffffffffffffffffffffffffffffffffffffffffffffffffff1916145b80612304575061230382612a77565b5b9050919050565b60008061231783612ae1565b9050600073ffffffffffffffffffffffffffffffffffffffff168173ffffffffffffffffffffffffffffffffffffffff160361238a57826040517f7e273289000000000000000000000000000000000000000000000000000000008152600401612381919061389f565b60405180910390fd5b80915050919050565b60006004600083815260200190815260200160002060009054906101000a900473ffffffffffffffffffffffffffffffffffffffff169050919050565b600033905090565b6123e58383836001612b1e565b505050565b6000806123f8858585612ce3565b9050600073ffffffffffffffffffffffffffffffffffffffff168173ffffffffffffffffffffffffffffffffffffffff160361243c5761243784612efd565b61247b565b8473ffffffffffffffffffffffffffffffffffffffff168173ffffffffffffffffffffffffffffffffffffffff161461247a576124798185612f46565b5b5b600073ffffffffffffffffffffffffffffffffffffffff168573ffffffffffffffffffffffffffffffffffffffff16036124bd576124b884613031565b6124fc565b8473ffffffffffffffffffffffffffffffffffffffff168173ffffffffffffffffffffffffffffffffffffffff16146124fb576124fa8585613102565b5b5b809150509392505050565b61252182826040518060200160405280600081525061318d565b5050565b61252d6123d0565b73ffffffffffffffffffffffffffffffffffffffff1661254b611e2a565b73ffffffffffffffffffffffffffffffffffffffff16146125aa5761256e6123d0565b6040517f118cdaa70000000000000000000000000000000000000000000000000000000081526004016125a19190613809565b60405180910390fd5b565b6000600a60009054906101000a900473ffffffffffffffffffffffffffffffffffffffff16905081600a60006101000a81548173ffffffffffffffffffffffffffffffffffffffff021916908373ffffffffffffffffffffffffffffffffffffffff1602179055508173ffffffffffffffffffffffffffffffffffffffff168173ffffffffffffffffffffffffffffffffffffffff167f8be0079c531659141344cd1fd0a4f28419497f9722a3daafe3b4186f6b6457e060405160405180910390a35050565b600073ffffffffffffffffffffffffffffffffffffffff168273ffffffffffffffffffffffffffffffffffffffff16036126e357816040517f5b08ba180000000000000000000000000000000000000000000000000000000081526004016126da9190613809565b60405180910390fd5b80600560008573ffffffffffffffffffffffffffffffffffffffff1673ffffffffffffffffffffffffffffffffffffffff16815260200190815260200160002060008473ffffffffffffffffffffffffffffffffffffffff1673ffffffffffffffffffffffffffffffffffffffff16815260200190815260200160002060006101000a81548160ff0219169083151502179055508173ffffffffffffffffffffffffffffffffffffffff168373ffffffffffffffffffffffffffffffffffffffff167f17307eab39ab6107e8899845ad3d59bd9653f200f220920489ca2b5937696c31836040516127d49190613698565b60405180910390a3505050565b60008373ffffffffffffffffffffffffffffffffffffffff163b111561298b578273ffffffffffffffffffffffffffffffffffffffff1663150b7a02868685856040518563ffffffff1660e01b81526004016128409493929190614898565b6020604051808303816000875af192505050801561287c57506040513d601f19601f8201168201806040525081019061287991906148f9565b60015b612900573d80600081146128ac576040519150601f19603f3d011682016040523d82523d6000602084013e6128b1565b606091505b5060008151036128f857836040517f64a0ae920000000000000000000000000000000000000000000000000000000081526004016128ef9190613809565b60405180910390fd5b805181602001fd5b63150b7a0260e01b7bffffffffffffffffffffffffffffffffffffffffffffffffffffffff1916817bffffffffffffffffffffffffffffffffffffffffffffffffffffffff19161461298957836040517f64a0ae920000000000000000000000000000000000000000000000000000000081526004016129809190613809565b60405180910390fd5b505b5050505050565b606060405180602001604052806000815250905090565b6060600060016129b8846131b1565b01905060008167ffffffffffffffff8111156129d7576129d6613917565b5b6040519080825280601f01601f191660200182016040528015612a095781602001600182028036833780820191505090505b509050600082602001820190505b600115612a6c578080600190039150507f3031323334353637383961626364656600000000000000000000000000000000600a86061a8153600a8581612a6057612a5f614926565b5b04945060008503612a17575b819350505050919050565b60007f01ffc9a7000000000000000000000000000000000000000000000000000000007bffffffffffffffffffffffffffffffffffffffffffffffffffffffff1916827bffffffffffffffffffffffffffffffffffffffffffffffffffffffff1916149050919050565b60006002600083815260200190815260200160002060009054906101000a900473ffffffffffffffffffffffffffffffffffffffff169050919050565b8080612b575750600073ffffffffffffffffffffffffffffffffffffffff168273ffffffffffffffffffffffffffffffffffffffff1614155b15612c8b576000612b678461230b565b9050600073ffffffffffffffffffffffffffffffffffffffff168373ffffffffffffffffffffffffffffffffffffffff1614158015612bd257508273ffffffffffffffffffffffffffffffffffffffff168173ffffffffffffffffffffffffffffffffffffffff1614155b8015612be55750612be3818461210f565b155b15612c2757826040517fa9fbf51f000000000000000000000000000000000000000000000000000000008152600401612c1e9190613809565b60405180910390fd5b8115612c8957838573ffffffffffffffffffffffffffffffffffffffff168273ffffffffffffffffffffffffffffffffffffffff167f8c5be1e5ebec7d5bd14f71427d1e84f3dd0314c0f7b2291e5b200ac8c7c3b92560405160405180910390a45b505b836004600085815260200190815260200160002060006101000a81548173ffffffffffffffffffffffffffffffffffffffff021916908373ffffffffffffffffffffffffffffffffffffffff16021790555050505050565b600080612cef84612ae1565b9050600073ffffffffffffffffffffffffffffffffffffffff168373ffffffffffffffffffffffffffffffffffffffff1614612d3157612d30818486613304565b5b600073ffffffffffffffffffffffffffffffffffffffff168173ffffffffffffffffffffffffffffffffffffffff1614612dc257612d73600085600080612b1e565b6001600360008373ffffffffffffffffffffffffffffffffffffffff1673ffffffffffffffffffffffffffffffffffffffff168152602001908152602001600020600082825403925050819055505b600073ffffffffffffffffffffffffffffffffffffffff168573ffffffffffffffffffffffffffffffffffffffff1614612e45576001600360008773ffffffffffffffffffffffffffffffffffffffff1673ffffffffffffffffffffffffffffffffffffffff168152602001908152602001600020600082825401925050819055505b846002600086815260200190815260200160002060006101000a81548173ffffffffffffffffffffffffffffffffffffffff021916908373ffffffffffffffffffffffffffffffffffffffff160217905550838573ffffffffffffffffffffffffffffffffffffffff168273ffffffffffffffffffffffffffffffffffffffff167fddf252ad1be2c89b69c2b068fc378daa952ba7f163c4a11628f55a4df523b3ef60405160405180910390a4809150509392505050565b6008805490506009600083815260200190815260200160002081905550600881908060018154018082558091505060019003906000526020600020016000909190919091505550565b6000612f5183611d5c565b90506000600760008481526020019081526020016000205490506000600660008673ffffffffffffffffffffffffffffffffffffffff1673ffffffffffffffffffffffffffffffffffffffff1681526020019081526020016000209050828214612ffd5760008160008581526020019081526020016000205490508082600085815260200190815260200160002081905550826007600083815260200190815260200160002081905550505b6007600085815260200190815260200160002060009055806000848152602001908152602001600020600090555050505050565b600060016008805490506130459190614955565b90506000600960008481526020019081526020016000205490506000600883815481106130755761307461470d565b5b9060005260206000200154905080600883815481106130975761309661470d565b5b9060005260206000200181905550816009600083815260200190815260200160002081905550600960008581526020019081526020016000206000905560088054806130e6576130e5614989565b5b6001900381819060005260206000200160009055905550505050565b6000600161310f84611d5c565b6131199190614955565b905081600660008573ffffffffffffffffffffffffffffffffffffffff1673ffffffffffffffffffffffffffffffffffffffff168152602001908152602001600020600083815260200190815260200160002081905550806007600084815260200190815260200160002081905550505050565b61319783836133c8565b6131ac6131a26123d0565b60008585856127e1565b505050565b600080600090507a184f03e93ff9f4daa797ed6e38ed64bf6a1f010000000000000000831061320f577a184f03e93ff9f4daa797ed6e38ed64bf6a1f010000000000000000838161320557613204614926565b5b0492506040810190505b6d04ee2d6d415b85acef8100000000831061324c576d04ee2d6d415b85acef8100000000838161324257613241614926565b5b0492506020810190505b662386f26fc10000831061327b57662386f26fc10000838161327157613270614926565b5b0492506010810190505b6305f5e10083106132a4576305f5e100838161329a57613299614926565b5b0492506008810190505b61271083106132c95761271083816132bf576132be614926565b5b0492506004810190505b606483106132ec57606483816132e2576132e1614926565b5b0492506002810190505b600a83106132fb576001810190505b80915050919050565b61330f8383836134c1565b6133c357600073ffffffffffffffffffffffffffffffffffffffff168373ffffffffffffffffffffffffffffffffffffffff160361338457806040517f7e27328900000000000000000000000000000000000000000000000000000000815260040161337b919061389f565b60405180910390fd5b81816040517f177e802f0000000000000000000000000000000000000000000000000000000081526004016133ba929190614413565b60405180910390fd5b505050565b600073ffffffffffffffffffffffffffffffffffffffff168273ffffffffffffffffffffffffffffffffffffffff160361343a5760006040517f64a0ae920000000000000000000000000000000000000000000000000000000081526004016134319190613809565b60405180910390fd5b6000613448838360006123ea565b9050600073ffffffffffffffffffffffffffffffffffffffff168173ffffffffffffffffffffffffffffffffffffffff16146134bc5760006040517f73c6ac6e0000000000000000000000000000000000000000000000000000000081526004016134b39190613809565b60405180910390fd5b505050565b60008073ffffffffffffffffffffffffffffffffffffffff168373ffffffffffffffffffffffffffffffffffffffff161415801561357957508273ffffffffffffffffffffffffffffffffffffffff168473ffffffffffffffffffffffffffffffffffffffff16148061353a5750613539848461210f565b5b8061357857508273ffffffffffffffffffffffffffffffffffffffff1661356083612393565b73ffffffffffffffffffffffffffffffffffffffff16145b5b90509392505050565b60405180610120016040528060608152602001600073ffffffffffffffffffffffffffffffffffffffff168152602001606081526020016060815260200160608152602001600081526020016060815260200160608152602001606081525090565b6000604051905090565b600080fd5b600080fd5b60007fffffffff0000000000000000000000000000000000000000000000000000000082169050919050565b61362d816135f8565b811461363857600080fd5b50565b60008135905061364a81613624565b92915050565b600060208284031215613666576136656135ee565b5b60006136748482850161363b565b91505092915050565b60008115159050919050565b6136928161367d565b82525050565b60006020820190506136ad6000830184613689565b92915050565b600081519050919050565b600082825260208201905092915050565b60005b838110156136ed5780820151818401526020810190506136d2565b60008484015250505050565b6000601f19601f8301169050919050565b6000613715826136b3565b61371f81856136be565b935061372f8185602086016136cf565b613738816136f9565b840191505092915050565b6000602082019050818103600083015261375d818461370a565b905092915050565b6000819050919050565b61377881613765565b811461378357600080fd5b50565b6000813590506137958161376f565b92915050565b6000602082840312156137b1576137b06135ee565b5b60006137bf84828501613786565b91505092915050565b600073ffffffffffffffffffffffffffffffffffffffff82169050919050565b60006137f3826137c8565b9050919050565b613803816137e8565b82525050565b600060208201905061381e60008301846137fa565b92915050565b61382d816137e8565b811461383857600080fd5b50565b60008135905061384a81613824565b92915050565b60008060408385031215613867576138666135ee565b5b60006138758582860161383b565b925050602061388685828601613786565b9150509250929050565b61389981613765565b82525050565b60006020820190506138b46000830184613890565b92915050565b6000806000606084860312156138d3576138d26135ee565b5b60006138e18682870161383b565b93505060206138f28682870161383b565b925050604061390386828701613786565b9150509250925092565b600080fd5b600080fd5b7f4e487b7100000000000000000000000000000000000000000000000000000000600052604160045260246000fd5b61394f826136f9565b810181811067ffffffffffffffff8211171561396e5761396d613917565b5b80604052505050565b60006139816135e4565b905061398d8282613946565b919050565b600067ffffffffffffffff8211156139ad576139ac613917565b5b6139b6826136f9565b9050602081019050919050565b82818337600083830152505050565b60006139e56139e084613992565b613977565b905082815260208101848484011115613a0157613a00613912565b5b613a0c8482856139c3565b509392505050565b600082601f830112613a2957613a2861390d565b5b8135613a398482602086016139d2565b91505092915050565b600080600080600080600080610100898b031215613a6357613a626135ee565b5b6000613a718b828c0161383b565b985050602089013567ffffffffffffffff811115613a9257613a916135f3565b5b613a9e8b828c01613a14565b975050604089013567ffffffffffffffff811115613abf57613abe6135f3565b5b613acb8b828c01613a14565b965050606089013567ffffffffffffffff811115613aec57613aeb6135f3565b5b613af88b828c01613a14565b955050608089013567ffffffffffffffff811115613b1957613b186135f3565b5b613b258b828c01613a14565b94505060a0613b368b828c01613786565b93505060c089013567ffffffffffffffff811115613b5757613b566135f3565b5b613b638b828c01613a14565b92505060e089013567ffffffffffffffff811115613b8457613b836135f3565b5b613b908b828c01613a14565b9150509295985092959890939650565b600060208284031215613bb657613bb56135ee565b5b600082013567ffffffffffffffff811115613bd457613bd36135f3565b5b613be084828501613a14565b91505092915050565b600060a0820190508181036000830152613c03818861370a565b9050613c1260208301876137fa565b8181036040830152613c24818661370a565b90508181036060830152613c38818561370a565b9050613c476080830184613689565b9695505050505050565b600060208284031215613c6757613c666135ee565b5b6000613c758482850161383b565b91505092915050565b600081519050919050565b600082825260208201905092915050565b6000819050602082019050919050565b600082825260208201905092915050565b6000613cc6826136b3565b613cd08185613caa565b9350613ce08185602086016136cf565b613ce9816136f9565b840191505092915050565b613cfd816137e8565b82525050565b613d0c81613765565b82525050565b600081519050919050565b600082825260208201905092915050565b6000819050602082019050919050565b604082016000820151613d546000850182613d03565b506020820151613d676020850182613cf4565b50505050565b6000613d798383613d3e565b60408301905092915050565b6000602082019050919050565b6000613d9d82613d12565b613da78185613d1d565b9350613db283613d2e565b8060005b83811015613de3578151613dca8882613d6d565b9750613dd583613d85565b925050600181019050613db6565b5085935050505092915050565b6000610120830160008301518482036000860152613e0e8282613cbb565b9150506020830151613e236020860182613cf4565b5060408301518482036040860152613e3b8282613cbb565b91505060608301518482036060860152613e558282613cbb565b91505060808301518482036080860152613e6f8282613cbb565b91505060a0830151613e8460a0860182613d03565b5060c083015184820360c0860152613e9c8282613cbb565b91505060e083015184820360e0860152613eb68282613cbb565b915050610100830151848203610100860152613ed28282613d92565b9150508091505092915050565b6000613eeb8383613df0565b905092915050565b6000602082019050919050565b6000613f0b82613c7e565b613f158185613c89565b935083602082028501613f2785613c9a565b8060005b85811015613f635784840389528151613f448582613edf565b9450613f4f83613ef3565b925060208a01995050600181019050613f2b565b50829750879550505050505092915050565b60006020820190508181036000830152613f8f8184613f00565b905092915050565b6000610100820190508181036000830152613fb2818b61370a565b9050613fc1602083018a6137fa565b8181036040830152613fd3818961370a565b90508181036060830152613fe7818861370a565b90508181036080830152613ffb818761370a565b905061400a60a0830186613890565b81810360c083015261401c818561370a565b905081810360e0830152614030818461370a565b90509998505050505050505050565b600061012083016000830151848203600086015261405d8282613cbb565b91505060208301516140726020860182613cf4565b506040830151848203604086015261408a8282613cbb565b915050606083015184820360608601526140a48282613cbb565b915050608083015184820360808601526140be8282613cbb565b91505060a08301516140d360a0860182613d03565b5060c083015184820360c08601526140eb8282613cbb565b91505060e083015184820360e08601526141058282613cbb565b9150506101008301518482036101008601526141218282613d92565b9150508091505092915050565b60006020820190508181036000830152614148818461403f565b905092915050565b6141598161367d565b811461416457600080fd5b50565b60008135905061417681614150565b92915050565b60008060408385031215614193576141926135ee565b5b60006141a18582860161383b565b92505060206141b285828601614167565b9150509250929050565b600067ffffffffffffffff8211156141d7576141d6613917565b5b6141e0826136f9565b9050602081019050919050565b60006142006141fb846141bc565b613977565b90508281526020810184848401111561421c5761421b613912565b5b6142278482856139c3565b509392505050565b600082601f8301126142445761424361390d565b5b81356142548482602086016141ed565b91505092915050565b60008060008060808587031215614277576142766135ee565b5b60006142858782880161383b565b94505060206142968782880161383b565b93505060406142a787828801613786565b925050606085013567ffffffffffffffff8111156142c8576142c76135f3565b5b6142d48782880161422f565b91505092959194509250565b600080604083850312156142f7576142f66135ee565b5b600083013567ffffffffffffffff811115614315576143146135f3565b5b61432185828601613a14565b92505060206143328582860161383b565b9150509250929050565b60008060408385031215614353576143526135ee565b5b60006143618582860161383b565b92505060206143728582860161383b565b9150509250929050565b7f4e487b7100000000000000000000000000000000000000000000000000000000600052602260045260246000fd5b600060028204905060018216806143c357607f821691505b6020821081036143d6576143d561437c565b5b50919050565b60006060820190506143f160008301866137fa565b6143fe6020830185613890565b61440b60408301846137fa565b949350505050565b600060408201905061442860008301856137fa565b6144356020830184613890565b9392505050565b600081905092915050565b6000614452826136b3565b61445c818561443c565b935061446c8185602086016136cf565b80840191505092915050565b60006144848284614447565b915081905092915050565b60008190508160005260206000209050919050565b60006020601f8301049050919050565b600082821b905092915050565b6000600883026144f17fffffffffffffffffffffffffffffffffffffffffffffffffffffffffffffffff826144b4565b6144fb86836144b4565b95508019841693508086168417925050509392505050565b6000819050919050565b600061453861453361452e84613765565b614513565b613765565b9050919050565b6000819050919050565b6145528361451d565b61456661455e8261453f565b8484546144c1565b825550505050565b600090565b61457b61456e565b614586818484614549565b505050565b5b818110156145aa5761459f600082614573565b60018101905061458c565b5050565b601f8211156145ef576145c08161448f565b6145c9846144a4565b810160208510156145d8578190505b6145ec6145e4856144a4565b83018261458b565b50505b505050565b600082821c905092915050565b6000614612600019846008026145f4565b1980831691505092915050565b600061462b8383614601565b9150826002028217905092915050565b614644826136b3565b67ffffffffffffffff81111561465d5761465c613917565b5b61466782546143ab565b6146728282856145ae565b600060209050601f8311600181146146a55760008415614693578287015190505b61469d858261461f565b865550614705565b601f1984166146b38661448f565b60005b828110156146db578489015182556001820191506020850194506020810190506146b6565b868310156146f857848901516146f4601f891682614601565b8355505b6001600288020188555050505b505050505050565b7f4e487b7100000000000000000000000000000000000000000000000000000000600052603260045260246000fd5b7f4e487b7100000000000000000000000000000000000000000000000000000000600052601160045260246000fd5b600061477682613765565b91507fffffffffffffffffffffffffffffffffffffffffffffffffffffffffffffffff82036147a8576147a761473c565b5b600182019050919050565b7f4c616e6420646f6573206e6f7420657869737400000000000000000000000000600082015250565b60006147e96013836136be565b91506147f4826147b3565b602082019050919050565b60006020820190508181036000830152614818816147dc565b9050919050565b600061482b8285614447565b91506148378284614447565b91508190509392505050565b600081519050919050565b600082825260208201905092915050565b600061486a82614843565b614874818561484e565b93506148848185602086016136cf565b61488d816136f9565b840191505092915050565b60006080820190506148ad60008301876137fa565b6148ba60208301866137fa565b6148c76040830185613890565b81810360608301526148d9818461485f565b905095945050505050565b6000815190506148f381613624565b92915050565b60006020828403121561490f5761490e6135ee565b5b600061491d848285016148e4565b91505092915050565b7f4e487b7100000000000000000000000000000000000000000000000000000000600052601260045260246000fd5b600061496082613765565b915061496b83613765565b92508282039050818111156149835761498261473c565b5b92915050565b7f4e487b7100000000000000000000000000000000000000000000000000000000600052603160045260246000fdfea2646970667358221220c67f9b79df76966bb7c00ff4df43cb5a0d395d675b4d48bbcdcde6bd4a272a6c64736f6c634300081c0033",
  "linkReferences": {},
  "deployedLinkReferences": {}
}