{
  "_format": "hh-sol-artifact-1",
  "contractName": "Loan",
  "sourceName": "contracts/Loan.sol",
  "abi": [
    {
      "inputs": [
        {
          "internalType": "address",
          "name": "_landRegistry",
          "type": "address"
        }
      ],
      "stateMutability": "nonpayable",
      "type": "constructor"
    },
    {
      "anonymous": false,
      "inputs": [
        {
          "indexed": true,
          "internalType": "uint256",
          "name": "tokenId",
          "type": "uint256"
        },
        {
          "indexed": false,
          "internalType": "address",
          "name": "borrower",
          "type": "address"
        }
      ],
      "name": "LoanRepaid",
      "type": "event"
    },
    {
      "anonymous": false,
      "inputs": [
        {
          "indexed": true,
          "internalType": "uint256",
          "name": "tokenId",
          "type": "uint256"
        },
        {
          "indexed": false,
          "internalType": "address",
          "name": "borrower",
          "type": "address"
        },
        {
          "indexed": false,
          "internalType": "uint256",
          "name": "amount",
          "type": "uint256"
        }
      ],
      "name": "LoanTaken",
      "type": "event"
    },
    {
      "inputs": [],
      "name": "landRegistry",
      "outputs": [
        {
          "internalType": "contract IERC721",
          "name": "",
          "type": "address"
        }
      ],
      "stateMutability": "view",
      "type": "function"
    },
    {
      "inputs": [
        {
          "internalType": "uint256",
          "name": "",
          "type": "uint256"
        }
      ],
      "name": "loans",
      "outputs": [
        {
          "internalType": "address",
          "name": "borrower",
          "type": "address"
        },
        {
          "internalType": "uint256",
          "name": "loanAmount",
          "type": "uint256"
        },
        {
          "internalType": "bool",
          "name": "active",
          "type": "bool"
        }
      ],
      "stateMutability": "view",
      "type": "function"
    },
    {
      "inputs": [
        {
          "internalType": "uint256",
          "name": "tokenId",
          "type": "uint256"
        }
      ],
      "name": "repayLoan",
      "outputs": [],
      "stateMutability": "payable",
      "type": "function"
    },
    {
      "inputs": [
        {
          "internalType": "uint256",
          "name": "tokenId",
          "type": "uint256"
        },
        {
          "internalType": "uint256",
          "name": "amount",
          "type": "uint256"
        }
      ],
      "name": "takeLoan",
      "outputs": [],
      "stateMutability": "nonpayable",
      "type": "function"
    }
  ],
  "bytecode": "0x608060405234801561001057600080fd5b50604051610ac9380380610ac9833981810160405281019061003291906100db565b806000806101000a81548173ffffffffffffffffffffffffffffffffffffffff021916908373ffffffffffffffffffffffffffffffffffffffff16021790555050610108565b600080fd5b600073ffffffffffffffffffffffffffffffffffffffff82169050919050565b60006100a88261007d565b9050919050565b6100b88161009d565b81146100c357600080fd5b50565b6000815190506100d5816100af565b92915050565b6000602082840312156100f1576100f0610078565b5b60006100ff848285016100c6565b91505092915050565b6109b2806101176000396000f3fe60806040526004361061003f5760003560e01c8063a318312514610044578063ab7b1c891461006d578063bd4dc02414610089578063e1ec3c68146100b4575b600080fd5b34801561005057600080fd5b5061006b6004803603810190610066919061057a565b6100f3565b005b610087600480360381019061008291906105ba565b61039e565b005b34801561009557600080fd5b5061009e6104c4565b6040516100ab9190610666565b60405180910390f35b3480156100c057600080fd5b506100db60048036038101906100d691906105ba565b6104e8565b6040516100ea939291906106cc565b60405180910390f35b3373ffffffffffffffffffffffffffffffffffffffff1660008054906101000a900473ffffffffffffffffffffffffffffffffffffffff1673ffffffffffffffffffffffffffffffffffffffff16636352211e846040518263ffffffff1660e01b81526004016101639190610703565b602060405180830381865afa158015610180573d6000803e3d6000fd5b505050506040513d601f19601f820116820180604052508101906101a4919061074a565b73ffffffffffffffffffffffffffffffffffffffff16146101fa576040517f08c379a00000000000000000000000000000000000000000000000000000000081526004016101f1906107d4565b60405180910390fd5b6001600083815260200190815260200160002060020160009054906101000a900460ff161561025e576040517f08c379a000000000000000000000000000000000000000000000000000000000815260040161025590610840565b60405180910390fd5b60405180606001604052803373ffffffffffffffffffffffffffffffffffffffff168152602001828152602001600115158152506001600084815260200190815260200160002060008201518160000160006101000a81548173ffffffffffffffffffffffffffffffffffffffff021916908373ffffffffffffffffffffffffffffffffffffffff1602179055506020820151816001015560408201518160020160006101000a81548160ff0219169083151502179055509050503373ffffffffffffffffffffffffffffffffffffffff166108fc829081150290604051600060405180830381858888f1935050505015801561035f573d6000803e3d6000fd5b50817f3f4c314b85c58632462245175b1078c0ddde17be04384100be8caf0768cebe173383604051610392929190610860565b60405180910390a25050565b6001600082815260200190815260200160002060020160009054906101000a900460ff16610401576040517f08c379a00000000000000000000000000000000000000000000000000000000081526004016103f8906108d5565b60405180910390fd5b600160008281526020019081526020016000206001015434101561045a576040517f08c379a000000000000000000000000000000000000000000000000000000000815260040161045190610941565b60405180910390fd5b60006001600083815260200190815260200160002060020160006101000a81548160ff021916908315150217905550807fe69d7686a8bc68278b8c5419579f91716b3ef2ac2fac0d8cf80b8011f8f458a4336040516104b99190610961565b60405180910390a250565b60008054906101000a900473ffffffffffffffffffffffffffffffffffffffff1681565b60016020528060005260406000206000915090508060000160009054906101000a900473ffffffffffffffffffffffffffffffffffffffff16908060010154908060020160009054906101000a900460ff16905083565b600080fd5b6000819050919050565b61055781610544565b811461056257600080fd5b50565b6000813590506105748161054e565b92915050565b600080604083850312156105915761059061053f565b5b600061059f85828601610565565b92505060206105b085828601610565565b9150509250929050565b6000602082840312156105d0576105cf61053f565b5b60006105de84828501610565565b91505092915050565b600073ffffffffffffffffffffffffffffffffffffffff82169050919050565b6000819050919050565b600061062c610627610622846105e7565b610607565b6105e7565b9050919050565b600061063e82610611565b9050919050565b600061065082610633565b9050919050565b61066081610645565b82525050565b600060208201905061067b6000830184610657565b92915050565b600061068c826105e7565b9050919050565b61069c81610681565b82525050565b6106ab81610544565b82525050565b60008115159050919050565b6106c6816106b1565b82525050565b60006060820190506106e16000830186610693565b6106ee60208301856106a2565b6106fb60408301846106bd565b949350505050565b600060208201905061071860008301846106a2565b92915050565b61072781610681565b811461073257600080fd5b50565b6000815190506107448161071e565b92915050565b6000602082840312156107605761075f61053f565b5b600061076e84828501610735565b91505092915050565b600082825260208201905092915050565b7f4e6f7420746865206f776e657200000000000000000000000000000000000000600082015250565b60006107be600d83610777565b91506107c982610788565b602082019050919050565b600060208201905081810360008301526107ed816107b1565b9050919050565b7f4c6f616e20616c72656164792074616b656e0000000000000000000000000000600082015250565b600061082a601283610777565b9150610835826107f4565b602082019050919050565b600060208201905081810360008301526108598161081d565b9050919050565b60006040820190506108756000830185610693565b61088260208301846106a2565b9392505050565b7f4e6f20616374697665206c6f616e000000000000000000000000000000000000600082015250565b60006108bf600e83610777565b91506108ca82610889565b602082019050919050565b600060208201905081810360008301526108ee816108b2565b9050919050565b7f496e73756666696369656e74207061796d656e74000000000000000000000000600082015250565b600061092b601483610777565b9150610936826108f5565b602082019050919050565b6000602082019050818103600083015261095a8161091e565b9050919050565b60006020820190506109766000830184610693565b9291505056fea264697066735822122095f46bd6994348912e120bdd297670d37eea34c9151c144fb3665f1dfbc5810964736f6c63430008140033",
  "linkReferences": {},
  "deployedLinkReferences": {}
}