{
  "_format": "hh-sol-artifact-1",
  "contractName": "LandRegistry",
  "sourceName": "contracts/LandRegistry.sol",
  "abi": [
    {
      "inputs": [],
      "stateMutability": "nonpayable",
      "type": "constructor"
    },
    {
      "inputs": [
        {
          "internalType": "address",
          "name": "sender",
          "type": "address"
        },
        {
          "internalType": "uint256",
          "name": "tokenId",
          "type": "uint256"
        },
        {
          "internalType": "address",
          "name": "owner",
          "type": "address"
        }
      ],
      "name": "ERC721IncorrectOwner",
      "type": "error"
    },
    {
      "inputs": [
        {
          "internalType": "address",
          "name": "operator",
          "type": "address"
        },
        {
          "internalType": "uint256",
          "name": "tokenId",
          "type": "uint256"
        }
      ],
      "name": "ERC721InsufficientApproval",
      "type": "error"
    },
    {
      "inputs": [
        {
          "internalType": "address",
          "name": "approver",
          "type": "address"
        }
      ],
      "name": "ERC721InvalidApprover",
      "type": "error"
    },
    {
      "inputs": [
        {
          "internalType": "address",
          "name": "operator",
          "type": "address"
        }
      ],
      "name": "ERC721InvalidOperator",
      "type": "error"
    },
    {
      "inputs": [
        {
          "internalType": "address",
          "name": "owner",
          "type": "address"
        }
      ],
      "name": "ERC721InvalidOwner",
      "type": "error"
    },
    {
      "inputs": [
        {
          "internalType": "address",
          "name": "receiver",
          "type": "address"
        }
      ],
      "name": "ERC721InvalidReceiver",
      "type": "error"
    },
    {
      "inputs": [
        {
          "internalType": "address",
          "name": "sender",
          "type": "address"
        }
      ],
      "name": "ERC721InvalidSender",
      "type": "error"
    },
    {
      "inputs": [
        {
          "internalType": "uint256",
          "name": "tokenId",
          "type": "uint256"
        }
      ],
      "name": "ERC721NonexistentToken",
      "type": "error"
    },
    {
      "inputs": [
        {
          "internalType": "address",
          "name": "owner",
          "type": "address"
        }
      ],
      "name": "OwnableInvalidOwner",
      "type": "error"
    },
    {
      "inputs": [
        {
          "internalType": "address",
          "name": "account",
          "type": "address"
        }
      ],
      "name": "OwnableUnauthorizedAccount",
      "type": "error"
    },
    {
      "anonymous": false,
      "inputs": [
        {
          "indexed": true,
          "internalType": "address",
          "name": "owner",
          "type": "address"
        },
        {
          "indexed": true,
          "internalType": "address",
          "name": "approved",
          "type": "address"
        },
        {
          "indexed": true,
          "internalType": "uint256",
          "name": "tokenId",
          "type": "uint256"
        }
      ],
      "name": "Approval",
      "type": "event"
    },
    {
      "anonymous": false,
      "inputs": [
        {
          "indexed": true,
          "internalType": "address",
          "name": "owner",
          "type": "address"
        },
        {
          "indexed": true,
          "internalType": "address",
          "name": "operator",
          "type": "address"
        },
        {
          "indexed": false,
          "internalType": "bool",
          "name": "approved",
          "type": "bool"
        }
      ],
      "name": "ApprovalForAll",
      "type": "event"
    },
    {
      "anonymous": false,
      "inputs": [
        {
          "indexed": true,
          "internalType": "string",
          "name": "landId",
          "type": "string"
        },
        {
          "indexed": false,
          "internalType": "uint256",
          "name": "price",
          "type": "uint256"
        }
      ],
      "name": "LandListedForSale",
      "type": "event"
    },
    {
      "anonymous": false,
      "inputs": [
        {
          "indexed": true,
          "internalType": "string",
          "name": "landId",
          "type": "string"
        },
        {
          "indexed": true,
          "internalType": "address",
          "name": "owner",
          "type": "address"
        }
      ],
      "name": "LandMinted",
      "type": "event"
    },
    {
      "anonymous": false,
      "inputs": [
        {
          "indexed": true,
          "internalType": "string",
          "name": "landId",
          "type": "string"
        }
      ],
      "name": "LandSaleCancelled",
      "type": "event"
    },
    {
      "anonymous": false,
      "inputs": [
        {
          "indexed": true,
          "internalType": "string",
          "name": "landId",
          "type": "string"
        },
        {
          "indexed": true,
          "internalType": "address",
          "name": "newOwner",
          "type": "address"
        }
      ],
      "name": "LandSold",
      "type": "event"
    },
    {
      "anonymous": false,
      "inputs": [
        {
          "indexed": true,
          "internalType": "string",
          "name": "landId",
          "type": "string"
        },
        {
          "indexed": true,
          "internalType": "address",
          "name": "newOwner",
          "type": "address"
        }
      ],
      "name": "LandTransferred",
      "type": "event"
    },
    {
      "anonymous": false,
      "inputs": [
        {
          "indexed": true,
          "internalType": "address",
          "name": "previousOwner",
          "type": "address"
        },
        {
          "indexed": true,
          "internalType": "address",
          "name": "newOwner",
          "type": "address"
        }
      ],
      "name": "OwnershipTransferred",
      "type": "event"
    },
    {
      "anonymous": false,
      "inputs": [
        {
          "indexed": true,
          "internalType": "address",
          "name": "from",
          "type": "address"
        },
        {
          "indexed": true,
          "internalType": "address",
          "name": "to",
          "type": "address"
        },
        {
          "indexed": true,
          "internalType": "uint256",
          "name": "tokenId",
          "type": "uint256"
        }
      ],
      "name": "Transfer",
      "type": "event"
    },
    {
      "inputs": [
        {
          "internalType": "address",
          "name": "to",
          "type": "address"
        },
        {
          "internalType": "uint256",
          "name": "tokenId",
          "type": "uint256"
        }
      ],
      "name": "approve",
      "outputs": [],
      "stateMutability": "nonpayable",
      "type": "function"
    },
    {
      "inputs": [
        {
          "internalType": "address",
          "name": "owner",
          "type": "address"
        }
      ],
      "name": "balanceOf",
      "outputs": [
        {
          "internalType": "uint256",
          "name": "",
          "type": "uint256"
        }
      ],
      "stateMutability": "view",
      "type": "function"
    },
    {
      "inputs": [
        {
          "internalType": "uint256",
          "name": "tokenId",
          "type": "uint256"
        }
      ],
      "name": "getApproved",
      "outputs": [
        {
          "internalType": "address",
          "name": "",
          "type": "address"
        }
      ],
      "stateMutability": "view",
      "type": "function"
    },
    {
      "inputs": [
        {
          "internalType": "string",
          "name": "landId",
          "type": "string"
        }
      ],
      "name": "getLand",
      "outputs": [
        {
          "components": [
            {
              "internalType": "string",
              "name": "landId",
              "type": "string"
            },
            {
              "internalType": "address",
              "name": "owner",
              "type": "address"
            },
            {
              "internalType": "string",
              "name": "location",
              "type": "string"
            },
            {
              "internalType": "string",
              "name": "state",
              "type": "string"
            },
            {
              "internalType": "string",
              "name": "city",
              "type": "string"
            },
            {
              "internalType": "uint256",
              "name": "area",
              "type": "uint256"
            },
            {
              "internalType": "uint256",
              "name": "areaInCent",
              "type": "uint256"
            },
            {
              "internalType": "uint256",
              "name": "areaInSqft",
              "type": "uint256"
            },
            {
              "components": [
                {
                  "internalType": "uint256",
                  "name": "date",
                  "type": "uint256"
                },
                {
                  "internalType": "address",
                  "name": "owner",
                  "type": "address"
                }
              ],
              "internalType": "struct LandRegistry.OwnershipHistory[]",
              "name": "history",
              "type": "tuple[]"
            }
          ],
          "internalType": "struct LandRegistry.LandDetails",
          "name": "",
          "type": "tuple"
        }
      ],
      "stateMutability": "view",
      "type": "function"
    },
    {
      "inputs": [
        {
          "internalType": "address",
          "name": "owner",
          "type": "address"
        },
        {
          "internalType": "address",
          "name": "operator",
          "type": "address"
        }
      ],
      "name": "isApprovedForAll",
      "outputs": [
        {
          "internalType": "bool",
          "name": "",
          "type": "bool"
        }
      ],
      "stateMutability": "view",
      "type": "function"
    },
    {
      "inputs": [
        {
          "internalType": "string",
          "name": "",
          "type": "string"
        }
      ],
      "name": "landRegistry",
      "outputs": [
        {
          "internalType": "string",
          "name": "landId",
          "type": "string"
        },
        {
          "internalType": "address",
          "name": "owner",
          "type": "address"
        },
        {
          "internalType": "string",
          "name": "location",
          "type": "string"
        },
        {
          "internalType": "string",
          "name": "state",
          "type": "string"
        },
        {
          "internalType": "string",
          "name": "city",
          "type": "string"
        },
        {
          "internalType": "uint256",
          "name": "area",
          "type": "uint256"
        },
        {
          "internalType": "uint256",
          "name": "areaInCent",
          "type": "uint256"
        },
        {
          "internalType": "uint256",
          "name": "areaInSqft",
          "type": "uint256"
        }
      ],
      "stateMutability": "view",
      "type": "function"
    },
    {
      "inputs": [
        {
          "internalType": "string",
          "name": "",
          "type": "string"
        }
      ],
      "name": "marketplace",
      "outputs": [
        {
          "internalType": "string",
          "name": "landId",
          "type": "string"
        },
        {
          "internalType": "address",
          "name": "seller",
          "type": "address"
        },
        {
          "internalType": "uint256",
          "name": "ratePerCent",
          "type": "uint256"
        },
        {
          "internalType": "uint256",
          "name": "totalPrice",
          "type": "uint256"
        },
        {
          "internalType": "bool",
          "name": "isForSale",
          "type": "bool"
        }
      ],
      "stateMutability": "view",
      "type": "function"
    },
    {
      "inputs": [
        {
          "internalType": "address",
          "name": "owner",
          "type": "address"
        },
        {
          "internalType": "string",
          "name": "landId",
          "type": "string"
        },
        {
          "internalType": "string",
          "name": "location",
          "type": "string"
        },
        {
          "internalType": "string",
          "name": "state",
          "type": "string"
        },
        {
          "internalType": "string",
          "name": "city",
          "type": "string"
        },
        {
          "internalType": "uint256",
          "name": "area",
          "type": "uint256"
        },
        {
          "internalType": "uint256",
          "name": "areaInCent",
          "type": "uint256"
        },
        {
          "internalType": "uint256",
          "name": "areaInSqft",
          "type": "uint256"
        }
      ],
      "name": "mintLand",
      "outputs": [],
      "stateMutability": "nonpayable",
      "type": "function"
    },
    {
      "inputs": [],
      "name": "name",
      "outputs": [
        {
          "internalType": "string",
          "name": "",
          "type": "string"
        }
      ],
      "stateMutability": "view",
      "type": "function"
    },
    {
      "inputs": [],
      "name": "owner",
      "outputs": [
        {
          "internalType": "address",
          "name": "",
          "type": "address"
        }
      ],
      "stateMutability": "view",
      "type": "function"
    },
    {
      "inputs": [
        {
          "internalType": "uint256",
          "name": "tokenId",
          "type": "uint256"
        }
      ],
      "name": "ownerOf",
      "outputs": [
        {
          "internalType": "address",
          "name": "",
          "type": "address"
        }
      ],
      "stateMutability": "view",
      "type": "function"
    },
    {
      "inputs": [],
      "name": "renounceOwnership",
      "outputs": [],
      "stateMutability": "nonpayable",
      "type": "function"
    },
    {
      "inputs": [
        {
          "internalType": "address",
          "name": "from",
          "type": "address"
        },
        {
          "internalType": "address",
          "name": "to",
          "type": "address"
        },
        {
          "internalType": "uint256",
          "name": "tokenId",
          "type": "uint256"
        }
      ],
      "name": "safeTransferFrom",
      "outputs": [],
      "stateMutability": "nonpayable",
      "type": "function"
    },
    {
      "inputs": [
        {
          "internalType": "address",
          "name": "from",
          "type": "address"
        },
        {
          "internalType": "address",
          "name": "to",
          "type": "address"
        },
        {
          "internalType": "uint256",
          "name": "tokenId",
          "type": "uint256"
        },
        {
          "internalType": "bytes",
          "name": "data",
          "type": "bytes"
        }
      ],
      "name": "safeTransferFrom",
      "outputs": [],
      "stateMutability": "nonpayable",
      "type": "function"
    },
    {
      "inputs": [
        {
          "internalType": "address",
          "name": "operator",
          "type": "address"
        },
        {
          "internalType": "bool",
          "name": "approved",
          "type": "bool"
        }
      ],
      "name": "setApprovalForAll",
      "outputs": [],
      "stateMutability": "nonpayable",
      "type": "function"
    },
    {
      "inputs": [
        {
          "internalType": "bytes4",
          "name": "interfaceId",
          "type": "bytes4"
        }
      ],
      "name": "supportsInterface",
      "outputs": [
        {
          "internalType": "bool",
          "name": "",
          "type": "bool"
        }
      ],
      "stateMutability": "view",
      "type": "function"
    },
    {
      "inputs": [],
      "name": "symbol",
      "outputs": [
        {
          "internalType": "string",
          "name": "",
          "type": "string"
        }
      ],
      "stateMutability": "view",
      "type": "function"
    },
    {
      "inputs": [
        {
          "internalType": "uint256",
          "name": "tokenId",
          "type": "uint256"
        }
      ],
      "name": "tokenURI",
      "outputs": [
        {
          "internalType": "string",
          "name": "",
          "type": "string"
        }
      ],
      "stateMutability": "view",
      "type": "function"
    },
    {
      "inputs": [
        {
          "internalType": "address",
          "name": "from",
          "type": "address"
        },
        {
          "internalType": "address",
          "name": "to",
          "type": "address"
        },
        {
          "internalType": "uint256",
          "name": "tokenId",
          "type": "uint256"
        }
      ],
      "name": "transferFrom",
      "outputs": [],
      "stateMutability": "nonpayable",
      "type": "function"
    },
    {
      "inputs": [
        {
          "internalType": "string",
          "name": "landId",
          "type": "string"
        },
        {
          "internalType": "address",
          "name": "newOwner",
          "type": "address"
        }
      ],
      "name": "transferLand",
      "outputs": [],
      "stateMutability": "nonpayable",
      "type": "function"
    },
    {
      "inputs": [
        {
          "internalType": "address",
          "name": "newOwner",
          "type": "address"
        }
      ],
      "name": "transferOwnership",
      "outputs": [],
      "stateMutability": "nonpayable",
      "type": "function"
    }
  ],
  "bytecode": "0x608060405234801561001057600080fd5b50336040518060400160405280600781526020017f4c616e644e4654000000000000000000000000000000000000000000000000008152506040518060400160405280600481526020017f4c414e4400000000000000000000000000000000000000000000000000000000815250816000908161008d919061043d565b50806001908161009d919061043d565b505050600073ffffffffffffffffffffffffffffffffffffffff168173ffffffffffffffffffffffffffffffffffffffff16036101125760006040517f1e4fbdf70000000000000000000000000000000000000000000000000000000081526004016101099190610550565b60405180910390fd5b6101218161012760201b60201c565b5061056b565b6000600660009054906101000a900473ffffffffffffffffffffffffffffffffffffffff16905081600660006101000a81548173ffffffffffffffffffffffffffffffffffffffff021916908373ffffffffffffffffffffffffffffffffffffffff1602179055508173ffffffffffffffffffffffffffffffffffffffff168173ffffffffffffffffffffffffffffffffffffffff167f8be0079c531659141344cd1fd0a4f28419497f9722a3daafe3b4186f6b6457e060405160405180910390a35050565b600081519050919050565b7f4e487b7100000000000000000000000000000000000000000000000000000000600052604160045260246000fd5b7f4e487b7100000000000000000000000000000000000000000000000000000000600052602260045260246000fd5b6000600282049050600182168061026e57607f821691505b60208210810361028157610280610227565b5b50919050565b60008190508160005260206000209050919050565b60006020601f8301049050919050565b600082821b905092915050565b6000600883026102e97fffffffffffffffffffffffffffffffffffffffffffffffffffffffffffffffff826102ac565b6102f386836102ac565b95508019841693508086168417925050509392505050565b6000819050919050565b6000819050919050565b600061033a6103356103308461030b565b610315565b61030b565b9050919050565b6000819050919050565b6103548361031f565b61036861036082610341565b8484546102b9565b825550505050565b600090565b61037d610370565b61038881848461034b565b505050565b5b818110156103ac576103a1600082610375565b60018101905061038e565b5050565b601f8211156103f1576103c281610287565b6103cb8461029c565b810160208510156103da578190505b6103ee6103e68561029c565b83018261038d565b50505b505050565b600082821c905092915050565b6000610414600019846008026103f6565b1980831691505092915050565b600061042d8383610403565b9150826002028217905092915050565b610446826101ed565b67ffffffffffffffff81111561045f5761045e6101f8565b5b6104698254610256565b6104748282856103b0565b600060209050601f8311600181146104a75760008415610495578287015190505b61049f8582610421565b865550610507565b601f1984166104b586610287565b60005b828110156104dd578489015182556001820191506020850194506020810190506104b8565b868310156104fa57848901516104f6601f891682610403565b8355505b6001600288020188555050505b505050505050565b600073ffffffffffffffffffffffffffffffffffffffff82169050919050565b600061053a8261050f565b9050919050565b61054a8161052f565b82525050565b60006020820190506105656000830184610541565b92915050565b61391a8061057a6000396000f3fe608060405234801561001057600080fd5b50600436106101375760003560e01c806370a08231116100b8578063a22cb4651161007c578063a22cb4651461036b578063b88d4fde14610387578063c87b56dd146103a3578063e7310755146103d3578063e985e9c5146103ef578063f2fde38b1461041f57610137565b806370a08231146102d9578063715018a61461030957806375bce249146103135780638da5cb5b1461032f57806395d89b411461034d57610137565b806342842e0e116100ff57806342842e0e146101f2578063430f6ce21461020e57806359d08bbf146102425780636352211e146102795780636c844a7b146102a957610137565b806301ffc9a71461013c57806306fdde031461016c578063081812fc1461018a578063095ea7b3146101ba57806323b872dd146101d6575b600080fd5b6101566004803603810190610151919061284e565b61043b565b6040516101639190612896565b60405180910390f35b61017461051d565b6040516101819190612941565b60405180910390f35b6101a4600480360381019061019f9190612999565b6105af565b6040516101b19190612a07565b60405180910390f35b6101d460048036038101906101cf9190612a4e565b6105cb565b005b6101f060048036038101906101eb9190612a8e565b6105e1565b005b61020c60048036038101906102079190612a8e565b6106e3565b005b61022860048036038101906102239190612c16565b610703565b604051610239959493929190612c6e565b60405180910390f35b61025c60048036038101906102579190612c16565b610804565b604051610270989796959493929190612cc8565b60405180910390f35b610293600480360381019061028e9190612999565b610aa2565b6040516102a09190612a07565b60405180910390f35b6102c360048036038101906102be9190612c16565b610ab4565b6040516102d09190612f89565b60405180910390f35b6102f360048036038101906102ee9190612fab565b610ed8565b6040516103009190612fd8565b60405180910390f35b610311610f92565b005b61032d60048036038101906103289190612ff3565b610fa6565b005b61033761129a565b6040516103449190612a07565b60405180910390f35b6103556112c4565b6040516103629190612941565b60405180910390f35b61038560048036038101906103809190613145565b611356565b005b6103a1600480360381019061039c9190613226565b61136c565b005b6103bd60048036038101906103b89190612999565b611391565b6040516103ca9190612941565b60405180910390f35b6103ed60048036038101906103e891906132a9565b6113fa565b005b61040960048036038101906104049190613305565b61162f565b6040516104169190612896565b60405180910390f35b61043960048036038101906104349190612fab565b6116c3565b005b60007f80ac58cd000000000000000000000000000000000000000000000000000000007bffffffffffffffffffffffffffffffffffffffffffffffffffffffff1916827bffffffffffffffffffffffffffffffffffffffffffffffffffffffff1916148061050657507f5b5e139f000000000000000000000000000000000000000000000000000000007bffffffffffffffffffffffffffffffffffffffffffffffffffffffff1916827bffffffffffffffffffffffffffffffffffffffffffffffffffffffff1916145b80610516575061051582611749565b5b9050919050565b60606000805461052c90613374565b80601f016020809104026020016040519081016040528092919081815260200182805461055890613374565b80156105a55780601f1061057a576101008083540402835291602001916105a5565b820191906000526020600020905b81548152906001019060200180831161058857829003601f168201915b5050505050905090565b60006105ba826117b3565b506105c48261183b565b9050919050565b6105dd82826105d8611878565b611880565b5050565b600073ffffffffffffffffffffffffffffffffffffffff168273ffffffffffffffffffffffffffffffffffffffff16036106535760006040517f64a0ae9200000000000000000000000000000000000000000000000000000000815260040161064a9190612a07565b60405180910390fd5b60006106678383610662611878565b611892565b90508373ffffffffffffffffffffffffffffffffffffffff168173ffffffffffffffffffffffffffffffffffffffff16146106dd578382826040517f64283d7b0000000000000000000000000000000000000000000000000000000081526004016106d4939291906133a5565b60405180910390fd5b50505050565b6106fe8383836040518060200160405280600081525061136c565b505050565b60088180516020810182018051848252602083016020850120818352809550505050505060009150905080600001805461073c90613374565b80601f016020809104026020016040519081016040528092919081815260200182805461076890613374565b80156107b55780601f1061078a576101008083540402835291602001916107b5565b820191906000526020600020905b81548152906001019060200180831161079857829003601f168201915b5050505050908060010160009054906101000a900473ffffffffffffffffffffffffffffffffffffffff16908060020154908060030154908060040160009054906101000a900460ff16905085565b60078180516020810182018051848252602083016020850120818352809550505050505060009150905080600001805461083d90613374565b80601f016020809104026020016040519081016040528092919081815260200182805461086990613374565b80156108b65780601f1061088b576101008083540402835291602001916108b6565b820191906000526020600020905b81548152906001019060200180831161089957829003601f168201915b5050505050908060010160009054906101000a900473ffffffffffffffffffffffffffffffffffffffff16908060020180546108f190613374565b80601f016020809104026020016040519081016040528092919081815260200182805461091d90613374565b801561096a5780601f1061093f5761010080835404028352916020019161096a565b820191906000526020600020905b81548152906001019060200180831161094d57829003601f168201915b50505050509080600301805461097f90613374565b80601f01602080910402602001604051908101604052809291908181526020018280546109ab90613374565b80156109f85780601f106109cd576101008083540402835291602001916109f8565b820191906000526020600020905b8154815290600101906020018083116109db57829003601f168201915b505050505090806004018054610a0d90613374565b80601f0160208091040260200160405190810160405280929190818152602001828054610a3990613374565b8015610a865780601f10610a5b57610100808354040283529160200191610a86565b820191906000526020600020905b815481529060010190602001808311610a6957829003601f168201915b5050505050908060050154908060060154908060070154905088565b6000610aad826117b3565b9050919050565b610abc612780565b6000600783604051610ace9190613418565b90815260200160405180910390206000018054610aea90613374565b905011610b2c576040517f08c379a0000000000000000000000000000000000000000000000000000000008152600401610b239061347b565b60405180910390fd5b600782604051610b3c9190613418565b908152602001604051809103902060405180610120016040529081600082018054610b6690613374565b80601f0160208091040260200160405190810160405280929190818152602001828054610b9290613374565b8015610bdf5780601f10610bb457610100808354040283529160200191610bdf565b820191906000526020600020905b815481529060010190602001808311610bc257829003601f168201915b505050505081526020016001820160009054906101000a900473ffffffffffffffffffffffffffffffffffffffff1673ffffffffffffffffffffffffffffffffffffffff1673ffffffffffffffffffffffffffffffffffffffff168152602001600282018054610c4e90613374565b80601f0160208091040260200160405190810160405280929190818152602001828054610c7a90613374565b8015610cc75780601f10610c9c57610100808354040283529160200191610cc7565b820191906000526020600020905b815481529060010190602001808311610caa57829003601f168201915b50505050508152602001600382018054610ce090613374565b80601f0160208091040260200160405190810160405280929190818152602001828054610d0c90613374565b8015610d595780601f10610d2e57610100808354040283529160200191610d59565b820191906000526020600020905b815481529060010190602001808311610d3c57829003601f168201915b50505050508152602001600482018054610d7290613374565b80601f0160208091040260200160405190810160405280929190818152602001828054610d9e90613374565b8015610deb5780601f10610dc057610100808354040283529160200191610deb565b820191906000526020600020905b815481529060010190602001808311610dce57829003601f168201915b5050505050815260200160058201548152602001600682015481526020016007820154815260200160088201805480602002602001604051908101604052809291908181526020016000905b82821015610ec95783829060005260206000209060020201604051806040016040529081600082015481526020016001820160009054906101000a900473ffffffffffffffffffffffffffffffffffffffff1673ffffffffffffffffffffffffffffffffffffffff1673ffffffffffffffffffffffffffffffffffffffff168152505081526020019060010190610e37565b50505050815250509050919050565b60008073ffffffffffffffffffffffffffffffffffffffff168273ffffffffffffffffffffffffffffffffffffffff1603610f4b5760006040517f89c62b64000000000000000000000000000000000000000000000000000000008152600401610f429190612a07565b60405180910390fd5b600360008373ffffffffffffffffffffffffffffffffffffffff1673ffffffffffffffffffffffffffffffffffffffff168152602001908152602001600020549050919050565b610f9a611aac565b610fa46000611b33565b565b610fae611aac565b610fe18888604051602001610fc39190613418565b6040516020818303038152906040528051906020012060001c611bf9565b86600788604051610ff29190613418565b9081526020016040518091039020600001908161100f9190613647565b50876007886040516110219190613418565b908152602001604051809103902060010160006101000a81548173ffffffffffffffffffffffffffffffffffffffff021916908373ffffffffffffffffffffffffffffffffffffffff160217905550856007886040516110819190613418565b9081526020016040518091039020600201908161109e9190613647565b50846007886040516110b09190613418565b908152602001604051809103902060030190816110cd9190613647565b50836007886040516110df9190613418565b908152602001604051809103902060040190816110fc9190613647565b508260078860405161110e9190613418565b908152602001604051809103902060050181905550816007886040516111349190613418565b9081526020016040518091039020600601819055508060078860405161115a9190613418565b90815260200160405180910390206007018190555060078760405161117f9190613418565b908152602001604051809103902060080160405180604001604052804281526020018a73ffffffffffffffffffffffffffffffffffffffff1681525090806001815401808255809150506001900390600052602060002090600202016000909190919091506000820151816000015560208201518160010160006101000a81548173ffffffffffffffffffffffffffffffffffffffff021916908373ffffffffffffffffffffffffffffffffffffffff16021790555050508773ffffffffffffffffffffffffffffffffffffffff168760405161125c9190613418565b60405180910390207f792dd1aae013468e087b267892a1b7e4456033d6e838800af6644859d7a3cd5860405160405180910390a35050505050505050565b6000600660009054906101000a900473ffffffffffffffffffffffffffffffffffffffff16905090565b6060600180546112d390613374565b80601f01602080910402602001604051908101604052809291908181526020018280546112ff90613374565b801561134c5780601f106113215761010080835404028352916020019161134c565b820191906000526020600020905b81548152906001019060200180831161132f57829003601f168201915b5050505050905090565b611368611361611878565b8383611c17565b5050565b6113778484846105e1565b61138b611382611878565b85858585611d86565b50505050565b606061139c826117b3565b5060006113a7611f37565b905060008151116113c757604051806020016040528060008152506113f2565b806113d184611f4e565b6040516020016113e2929190613719565b6040516020818303038152906040525b915050919050565b60008260405160200161140d9190613418565b6040516020818303038152906040528051906020012060001c90503373ffffffffffffffffffffffffffffffffffffffff1661144882610aa2565b73ffffffffffffffffffffffffffffffffffffffff161461149e576040517f08c379a000000000000000000000000000000000000000000000000000000000815260040161149590613789565b60405180910390fd5b6114a933838361201c565b816007846040516114ba9190613418565b908152602001604051809103902060010160006101000a81548173ffffffffffffffffffffffffffffffffffffffff021916908373ffffffffffffffffffffffffffffffffffffffff1602179055506007836040516115199190613418565b908152602001604051809103902060080160405180604001604052804281526020018473ffffffffffffffffffffffffffffffffffffffff1681525090806001815401808255809150506001900390600052602060002090600202016000909190919091506000820151816000015560208201518160010160006101000a81548173ffffffffffffffffffffffffffffffffffffffff021916908373ffffffffffffffffffffffffffffffffffffffff16021790555050508173ffffffffffffffffffffffffffffffffffffffff16836040516115f69190613418565b60405180910390207f516a84499c3ca21ca8c45f4b01137649c7a6bd74daa4242a44cfb801e418d2a560405160405180910390a3505050565b6000600560008473ffffffffffffffffffffffffffffffffffffffff1673ffffffffffffffffffffffffffffffffffffffff16815260200190815260200160002060008373ffffffffffffffffffffffffffffffffffffffff1673ffffffffffffffffffffffffffffffffffffffff16815260200190815260200160002060009054906101000a900460ff16905092915050565b6116cb611aac565b600073ffffffffffffffffffffffffffffffffffffffff168173ffffffffffffffffffffffffffffffffffffffff160361173d5760006040517f1e4fbdf70000000000000000000000000000000000000000000000000000000081526004016117349190612a07565b60405180910390fd5b61174681611b33565b50565b60007f01ffc9a7000000000000000000000000000000000000000000000000000000007bffffffffffffffffffffffffffffffffffffffffffffffffffffffff1916827bffffffffffffffffffffffffffffffffffffffffffffffffffffffff1916149050919050565b6000806117bf83612189565b9050600073ffffffffffffffffffffffffffffffffffffffff168173ffffffffffffffffffffffffffffffffffffffff160361183257826040517f7e2732890000000000000000000000000000000000000000000000000000000081526004016118299190612fd8565b60405180910390fd5b80915050919050565b60006004600083815260200190815260200160002060009054906101000a900473ffffffffffffffffffffffffffffffffffffffff169050919050565b600033905090565b61188d83838360016121c6565b505050565b60008061189e84612189565b9050600073ffffffffffffffffffffffffffffffffffffffff168373ffffffffffffffffffffffffffffffffffffffff16146118e0576118df81848661238b565b5b600073ffffffffffffffffffffffffffffffffffffffff168173ffffffffffffffffffffffffffffffffffffffff1614611971576119226000856000806121c6565b6001600360008373ffffffffffffffffffffffffffffffffffffffff1673ffffffffffffffffffffffffffffffffffffffff168152602001908152602001600020600082825403925050819055505b600073ffffffffffffffffffffffffffffffffffffffff168573ffffffffffffffffffffffffffffffffffffffff16146119f4576001600360008773ffffffffffffffffffffffffffffffffffffffff1673ffffffffffffffffffffffffffffffffffffffff168152602001908152602001600020600082825401925050819055505b846002600086815260200190815260200160002060006101000a81548173ffffffffffffffffffffffffffffffffffffffff021916908373ffffffffffffffffffffffffffffffffffffffff160217905550838573ffffffffffffffffffffffffffffffffffffffff168273ffffffffffffffffffffffffffffffffffffffff167fddf252ad1be2c89b69c2b068fc378daa952ba7f163c4a11628f55a4df523b3ef60405160405180910390a4809150509392505050565b611ab4611878565b73ffffffffffffffffffffffffffffffffffffffff16611ad261129a565b73ffffffffffffffffffffffffffffffffffffffff1614611b3157611af5611878565b6040517f118cdaa7000000000000000000000000000000000000000000000000000000008152600401611b289190612a07565b60405180910390fd5b565b6000600660009054906101000a900473ffffffffffffffffffffffffffffffffffffffff16905081600660006101000a81548173ffffffffffffffffffffffffffffffffffffffff021916908373ffffffffffffffffffffffffffffffffffffffff1602179055508173ffffffffffffffffffffffffffffffffffffffff168173ffffffffffffffffffffffffffffffffffffffff167f8be0079c531659141344cd1fd0a4f28419497f9722a3daafe3b4186f6b6457e060405160405180910390a35050565b611c1382826040518060200160405280600081525061244f565b5050565b600073ffffffffffffffffffffffffffffffffffffffff168273ffffffffffffffffffffffffffffffffffffffff1603611c8857816040517f5b08ba18000000000000000000000000000000000000000000000000000000008152600401611c7f9190612a07565b60405180910390fd5b80600560008573ffffffffffffffffffffffffffffffffffffffff1673ffffffffffffffffffffffffffffffffffffffff16815260200190815260200160002060008473ffffffffffffffffffffffffffffffffffffffff1673ffffffffffffffffffffffffffffffffffffffff16815260200190815260200160002060006101000a81548160ff0219169083151502179055508173ffffffffffffffffffffffffffffffffffffffff168373ffffffffffffffffffffffffffffffffffffffff167f17307eab39ab6107e8899845ad3d59bd9653f200f220920489ca2b5937696c3183604051611d799190612896565b60405180910390a3505050565b60008373ffffffffffffffffffffffffffffffffffffffff163b1115611f30578273ffffffffffffffffffffffffffffffffffffffff1663150b7a02868685856040518563ffffffff1660e01b8152600401611de594939291906137fe565b6020604051808303816000875af1925050508015611e2157506040513d601f19601f82011682018060405250810190611e1e919061385f565b60015b611ea5573d8060008114611e51576040519150601f19603f3d011682016040523d82523d6000602084013e611e56565b606091505b506000815103611e9d57836040517f64a0ae92000000000000000000000000000000000000000000000000000000008152600401611e949190612a07565b60405180910390fd5b805181602001fd5b63150b7a0260e01b7bffffffffffffffffffffffffffffffffffffffffffffffffffffffff1916817bffffffffffffffffffffffffffffffffffffffffffffffffffffffff191614611f2e57836040517f64a0ae92000000000000000000000000000000000000000000000000000000008152600401611f259190612a07565b60405180910390fd5b505b5050505050565b606060405180602001604052806000815250905090565b606060006001611f5d84612473565b01905060008167ffffffffffffffff811115611f7c57611f7b612aeb565b5b6040519080825280601f01601f191660200182016040528015611fae5781602001600182028036833780820191505090505b509050600082602001820190505b600115612011578080600190039150507f3031323334353637383961626364656600000000000000000000000000000000600a86061a8153600a85816120055761200461388c565b5b04945060008503611fbc575b819350505050919050565b600073ffffffffffffffffffffffffffffffffffffffff168273ffffffffffffffffffffffffffffffffffffffff160361208e5760006040517f64a0ae920000000000000000000000000000000000000000000000000000000081526004016120859190612a07565b60405180910390fd5b600061209c83836000611892565b9050600073ffffffffffffffffffffffffffffffffffffffff168173ffffffffffffffffffffffffffffffffffffffff160361210f57816040517f7e2732890000000000000000000000000000000000000000000000000000000081526004016121069190612fd8565b60405180910390fd5b8373ffffffffffffffffffffffffffffffffffffffff168173ffffffffffffffffffffffffffffffffffffffff1614612183578382826040517f64283d7b00000000000000000000000000000000000000000000000000000000815260040161217a939291906133a5565b60405180910390fd5b50505050565b60006002600083815260200190815260200160002060009054906101000a900473ffffffffffffffffffffffffffffffffffffffff169050919050565b80806121ff5750600073ffffffffffffffffffffffffffffffffffffffff168273ffffffffffffffffffffffffffffffffffffffff1614155b1561233357600061220f846117b3565b9050600073ffffffffffffffffffffffffffffffffffffffff168373ffffffffffffffffffffffffffffffffffffffff161415801561227a57508273ffffffffffffffffffffffffffffffffffffffff168173ffffffffffffffffffffffffffffffffffffffff1614155b801561228d575061228b818461162f565b155b156122cf57826040517fa9fbf51f0000000000000000000000000000000000000000000000000000000081526004016122c69190612a07565b60405180910390fd5b811561233157838573ffffffffffffffffffffffffffffffffffffffff168273ffffffffffffffffffffffffffffffffffffffff167f8c5be1e5ebec7d5bd14f71427d1e84f3dd0314c0f7b2291e5b200ac8c7c3b92560405160405180910390a45b505b836004600085815260200190815260200160002060006101000a81548173ffffffffffffffffffffffffffffffffffffffff021916908373ffffffffffffffffffffffffffffffffffffffff16021790555050505050565b6123968383836125c6565b61244a57600073ffffffffffffffffffffffffffffffffffffffff168373ffffffffffffffffffffffffffffffffffffffff160361240b57806040517f7e2732890000000000000000000000000000000000000000000000000000000081526004016124029190612fd8565b60405180910390fd5b81816040517f177e802f0000000000000000000000000000000000000000000000000000000081526004016124419291906138bb565b60405180910390fd5b505050565b6124598383612687565b61246e612464611878565b6000858585611d86565b505050565b600080600090507a184f03e93ff9f4daa797ed6e38ed64bf6a1f01000000000000000083106124d1577a184f03e93ff9f4daa797ed6e38ed64bf6a1f01000000000000000083816124c7576124c661388c565b5b0492506040810190505b6d04ee2d6d415b85acef8100000000831061250e576d04ee2d6d415b85acef810000000083816125045761250361388c565b5b0492506020810190505b662386f26fc10000831061253d57662386f26fc1000083816125335761253261388c565b5b0492506010810190505b6305f5e1008310612566576305f5e100838161255c5761255b61388c565b5b0492506008810190505b612710831061258b5761271083816125815761258061388c565b5b0492506004810190505b606483106125ae57606483816125a4576125a361388c565b5b0492506002810190505b600a83106125bd576001810190505b80915050919050565b60008073ffffffffffffffffffffffffffffffffffffffff168373ffffffffffffffffffffffffffffffffffffffff161415801561267e57508273ffffffffffffffffffffffffffffffffffffffff168473ffffffffffffffffffffffffffffffffffffffff16148061263f575061263e848461162f565b5b8061267d57508273ffffffffffffffffffffffffffffffffffffffff166126658361183b565b73ffffffffffffffffffffffffffffffffffffffff16145b5b90509392505050565b600073ffffffffffffffffffffffffffffffffffffffff168273ffffffffffffffffffffffffffffffffffffffff16036126f95760006040517f64a0ae920000000000000000000000000000000000000000000000000000000081526004016126f09190612a07565b60405180910390fd5b600061270783836000611892565b9050600073ffffffffffffffffffffffffffffffffffffffff168173ffffffffffffffffffffffffffffffffffffffff161461277b5760006040517f73c6ac6e0000000000000000000000000000000000000000000000000000000081526004016127729190612a07565b60405180910390fd5b505050565b60405180610120016040528060608152602001600073ffffffffffffffffffffffffffffffffffffffff168152602001606081526020016060815260200160608152602001600081526020016000815260200160008152602001606081525090565b6000604051905090565b600080fd5b600080fd5b60007fffffffff0000000000000000000000000000000000000000000000000000000082169050919050565b61282b816127f6565b811461283657600080fd5b50565b60008135905061284881612822565b92915050565b600060208284031215612864576128636127ec565b5b600061287284828501612839565b91505092915050565b60008115159050919050565b6128908161287b565b82525050565b60006020820190506128ab6000830184612887565b92915050565b600081519050919050565b600082825260208201905092915050565b60005b838110156128eb5780820151818401526020810190506128d0565b60008484015250505050565b6000601f19601f8301169050919050565b6000612913826128b1565b61291d81856128bc565b935061292d8185602086016128cd565b612936816128f7565b840191505092915050565b6000602082019050818103600083015261295b8184612908565b905092915050565b6000819050919050565b61297681612963565b811461298157600080fd5b50565b6000813590506129938161296d565b92915050565b6000602082840312156129af576129ae6127ec565b5b60006129bd84828501612984565b91505092915050565b600073ffffffffffffffffffffffffffffffffffffffff82169050919050565b60006129f1826129c6565b9050919050565b612a01816129e6565b82525050565b6000602082019050612a1c60008301846129f8565b92915050565b612a2b816129e6565b8114612a3657600080fd5b50565b600081359050612a4881612a22565b92915050565b60008060408385031215612a6557612a646127ec565b5b6000612a7385828601612a39565b9250506020612a8485828601612984565b9150509250929050565b600080600060608486031215612aa757612aa66127ec565b5b6000612ab586828701612a39565b9350506020612ac686828701612a39565b9250506040612ad786828701612984565b9150509250925092565b600080fd5b600080fd5b7f4e487b7100000000000000000000000000000000000000000000000000000000600052604160045260246000fd5b612b23826128f7565b810181811067ffffffffffffffff82111715612b4257612b41612aeb565b5b80604052505050565b6000612b556127e2565b9050612b618282612b1a565b919050565b600067ffffffffffffffff821115612b8157612b80612aeb565b5b612b8a826128f7565b9050602081019050919050565b82818337600083830152505050565b6000612bb9612bb484612b66565b612b4b565b905082815260208101848484011115612bd557612bd4612ae6565b5b612be0848285612b97565b509392505050565b600082601f830112612bfd57612bfc612ae1565b5b8135612c0d848260208601612ba6565b91505092915050565b600060208284031215612c2c57612c2b6127ec565b5b600082013567ffffffffffffffff811115612c4a57612c496127f1565b5b612c5684828501612be8565b91505092915050565b612c6881612963565b82525050565b600060a0820190508181036000830152612c888188612908565b9050612c9760208301876129f8565b612ca46040830186612c5f565b612cb16060830185612c5f565b612cbe6080830184612887565b9695505050505050565b6000610100820190508181036000830152612ce3818b612908565b9050612cf2602083018a6129f8565b8181036040830152612d048189612908565b90508181036060830152612d188188612908565b90508181036080830152612d2c8187612908565b9050612d3b60a0830186612c5f565b612d4860c0830185612c5f565b612d5560e0830184612c5f565b9998505050505050505050565b600082825260208201905092915050565b6000612d7e826128b1565b612d888185612d62565b9350612d988185602086016128cd565b612da1816128f7565b840191505092915050565b612db5816129e6565b82525050565b612dc481612963565b82525050565b600081519050919050565b600082825260208201905092915050565b6000819050602082019050919050565b604082016000820151612e0c6000850182612dbb565b506020820151612e1f6020850182612dac565b50505050565b6000612e318383612df6565b60408301905092915050565b6000602082019050919050565b6000612e5582612dca565b612e5f8185612dd5565b9350612e6a83612de6565b8060005b83811015612e9b578151612e828882612e25565b9750612e8d83612e3d565b925050600181019050612e6e565b5085935050505092915050565b6000610120830160008301518482036000860152612ec68282612d73565b9150506020830151612edb6020860182612dac565b5060408301518482036040860152612ef38282612d73565b91505060608301518482036060860152612f0d8282612d73565b91505060808301518482036080860152612f278282612d73565b91505060a0830151612f3c60a0860182612dbb565b5060c0830151612f4f60c0860182612dbb565b5060e0830151612f6260e0860182612dbb565b50610100830151848203610100860152612f7c8282612e4a565b9150508091505092915050565b60006020820190508181036000830152612fa38184612ea8565b905092915050565b600060208284031215612fc157612fc06127ec565b5b6000612fcf84828501612a39565b91505092915050565b6000602082019050612fed6000830184612c5f565b92915050565b600080600080600080600080610100898b031215613014576130136127ec565b5b60006130228b828c01612a39565b985050602089013567ffffffffffffffff811115613043576130426127f1565b5b61304f8b828c01612be8565b975050604089013567ffffffffffffffff8111156130705761306f6127f1565b5b61307c8b828c01612be8565b965050606089013567ffffffffffffffff81111561309d5761309c6127f1565b5b6130a98b828c01612be8565b955050608089013567ffffffffffffffff8111156130ca576130c96127f1565b5b6130d68b828c01612be8565b94505060a06130e78b828c01612984565b93505060c06130f88b828c01612984565b92505060e06131098b828c01612984565b9150509295985092959890939650565b6131228161287b565b811461312d57600080fd5b50565b60008135905061313f81613119565b92915050565b6000806040838503121561315c5761315b6127ec565b5b600061316a85828601612a39565b925050602061317b85828601613130565b9150509250929050565b600067ffffffffffffffff8211156131a05761319f612aeb565b5b6131a9826128f7565b9050602081019050919050565b60006131c96131c484613185565b612b4b565b9050828152602081018484840111156131e5576131e4612ae6565b5b6131f0848285612b97565b509392505050565b600082601f83011261320d5761320c612ae1565b5b813561321d8482602086016131b6565b91505092915050565b600080600080608085870312156132405761323f6127ec565b5b600061324e87828801612a39565b945050602061325f87828801612a39565b935050604061327087828801612984565b925050606085013567ffffffffffffffff811115613291576132906127f1565b5b61329d878288016131f8565b91505092959194509250565b600080604083850312156132c0576132bf6127ec565b5b600083013567ffffffffffffffff8111156132de576132dd6127f1565b5b6132ea85828601612be8565b92505060206132fb85828601612a39565b9150509250929050565b6000806040838503121561331c5761331b6127ec565b5b600061332a85828601612a39565b925050602061333b85828601612a39565b9150509250929050565b7f4e487b7100000000000000000000000000000000000000000000000000000000600052602260045260246000fd5b6000600282049050600182168061338c57607f821691505b60208210810361339f5761339e613345565b5b50919050565b60006060820190506133ba60008301866129f8565b6133c76020830185612c5f565b6133d460408301846129f8565b949350505050565b600081905092915050565b60006133f2826128b1565b6133fc81856133dc565b935061340c8185602086016128cd565b80840191505092915050565b600061342482846133e7565b915081905092915050565b7f4c616e6420646f6573206e6f7420657869737400000000000000000000000000600082015250565b60006134656013836128bc565b91506134708261342f565b602082019050919050565b6000602082019050818103600083015261349481613458565b9050919050565b60008190508160005260206000209050919050565b60006020601f8301049050919050565b600082821b905092915050565b6000600883026134fd7fffffffffffffffffffffffffffffffffffffffffffffffffffffffffffffffff826134c0565b61350786836134c0565b95508019841693508086168417925050509392505050565b6000819050919050565b600061354461353f61353a84612963565b61351f565b612963565b9050919050565b6000819050919050565b61355e83613529565b61357261356a8261354b565b8484546134cd565b825550505050565b600090565b61358761357a565b613592818484613555565b505050565b5b818110156135b6576135ab60008261357f565b600181019050613598565b5050565b601f8211156135fb576135cc8161349b565b6135d5846134b0565b810160208510156135e4578190505b6135f86135f0856134b0565b830182613597565b50505b505050565b600082821c905092915050565b600061361e60001984600802613600565b1980831691505092915050565b6000613637838361360d565b9150826002028217905092915050565b613650826128b1565b67ffffffffffffffff81111561366957613668612aeb565b5b6136738254613374565b61367e8282856135ba565b600060209050601f8311600181146136b1576000841561369f578287015190505b6136a9858261362b565b865550613711565b601f1984166136bf8661349b565b60005b828110156136e7578489015182556001820191506020850194506020810190506136c2565b868310156137045784890151613700601f89168261360d565b8355505b6001600288020188555050505b505050505050565b600061372582856133e7565b915061373182846133e7565b91508190509392505050565b7f4e6f7420746865206f776e6572206f662074686973206c616e64000000000000600082015250565b6000613773601a836128bc565b915061377e8261373d565b602082019050919050565b600060208201905081810360008301526137a281613766565b9050919050565b600081519050919050565b600082825260208201905092915050565b60006137d0826137a9565b6137da81856137b4565b93506137ea8185602086016128cd565b6137f3816128f7565b840191505092915050565b600060808201905061381360008301876129f8565b61382060208301866129f8565b61382d6040830185612c5f565b818103606083015261383f81846137c5565b905095945050505050565b60008151905061385981612822565b92915050565b600060208284031215613875576138746127ec565b5b60006138838482850161384a565b91505092915050565b7f4e487b7100000000000000000000000000000000000000000000000000000000600052601260045260246000fd5b60006040820190506138d060008301856129f8565b6138dd6020830184612c5f565b939250505056fea2646970667358221220ae7ac8985da31c8211f297a573c05cb8d1493114860962e4e8ccfaf68dc72aaf64736f6c634300081c0033",
  "linkReferences": {},
  "deployedLinkReferences": {}
}