{
  "_format": "hh-sol-artifact-1",
  "contractName": "Marketplace",
  "sourceName": "contracts/Marketplace.sol",
  "abi": [
    {
      "inputs": [
        {
          "internalType": "address",
          "name": "_landRegistry",
          "type": "address"
        }
      ],
      "stateMutability": "nonpayable",
      "type": "constructor"
    },
    {
      "anonymous": false,
      "inputs": [
        {
          "indexed": true,
          "internalType": "uint256",
          "name": "tokenId",
          "type": "uint256"
        },
        {
          "indexed": false,
          "internalType": "address",
          "name": "seller",
          "type": "address"
        },
        {
          "indexed": false,
          "internalType": "uint256",
          "name": "price",
          "type": "uint256"
        }
      ],
      "name": "LandListed",
      "type": "event"
    },
    {
      "anonymous": false,
      "inputs": [
        {
          "indexed": true,
          "internalType": "uint256",
          "name": "tokenId",
          "type": "uint256"
        },
        {
          "indexed": false,
          "internalType": "address",
          "name": "buyer",
          "type": "address"
        },
        {
          "indexed": false,
          "internalType": "uint256",
          "name": "price",
          "type": "uint256"
        }
      ],
      "name": "LandSold",
      "type": "event"
    },
    {
      "inputs": [
        {
          "internalType": "uint256",
          "name": "tokenId",
          "type": "uint256"
        }
      ],
      "name": "buyLand",
      "outputs": [],
      "stateMutability": "payable",
      "type": "function"
    },
    {
      "inputs": [],
      "name": "landRegistry",
      "outputs": [
        {
          "internalType": "contract IERC721",
          "name": "",
          "type": "address"
        }
      ],
      "stateMutability": "view",
      "type": "function"
    },
    {
      "inputs": [
        {
          "internalType": "uint256",
          "name": "tokenId",
          "type": "uint256"
        },
        {
          "internalType": "uint256",
          "name": "price",
          "type": "uint256"
        }
      ],
      "name": "listLand",
      "outputs": [],
      "stateMutability": "nonpayable",
      "type": "function"
    },
    {
      "inputs": [
        {
          "internalType": "uint256",
          "name": "",
          "type": "uint256"
        }
      ],
      "name": "listings",
      "outputs": [
        {
          "internalType": "address",
          "name": "seller",
          "type": "address"
        },
        {
          "internalType": "uint256",
          "name": "price",
          "type": "uint256"
        }
      ],
      "stateMutability": "view",
      "type": "function"
    }
  ],
  "bytecode": "0x608060405234801561001057600080fd5b50604051610aba380380610aba833981810160405281019061003291906100db565b806000806101000a81548173ffffffffffffffffffffffffffffffffffffffff021916908373ffffffffffffffffffffffffffffffffffffffff16021790555050610108565b600080fd5b600073ffffffffffffffffffffffffffffffffffffffff82169050919050565b60006100a88261007d565b9050919050565b6100b88161009d565b81146100c357600080fd5b50565b6000815190506100d5816100af565b92915050565b6000602082840312156100f1576100f0610078565b5b60006100ff848285016100c6565b91505092915050565b6109a3806101176000396000f3fe60806040526004361061003f5760003560e01c8063bd4dc02414610044578063ced395581461006f578063de74e57b1461008b578063f35fb209146100c9575b600080fd5b34801561005057600080fd5b506100596100f2565b6040516100669190610651565b60405180910390f35b610089600480360381019061008491906106a7565b610116565b005b34801561009757600080fd5b506100b260048036038101906100ad91906106a7565b6103b7565b6040516100c0929190610704565b60405180910390f35b3480156100d557600080fd5b506100f060048036038101906100eb919061072d565b6103fb565b005b60008054906101000a900473ffffffffffffffffffffffffffffffffffffffff1681565b6000600160008381526020019081526020016000206040518060400160405290816000820160009054906101000a900473ffffffffffffffffffffffffffffffffffffffff1673ffffffffffffffffffffffffffffffffffffffff1673ffffffffffffffffffffffffffffffffffffffff168152602001600182015481525050905080602001513410156101df576040517f08c379a00000000000000000000000000000000000000000000000000000000081526004016101d6906107ca565b60405180910390fd5b600073ffffffffffffffffffffffffffffffffffffffff16816000015173ffffffffffffffffffffffffffffffffffffffff1603610252576040517f08c379a000000000000000000000000000000000000000000000000000000000815260040161024990610836565b60405180910390fd5b60008054906101000a900473ffffffffffffffffffffffffffffffffffffffff1673ffffffffffffffffffffffffffffffffffffffff166323b872dd826000015133856040518463ffffffff1660e01b81526004016102b393929190610856565b600060405180830381600087803b1580156102cd57600080fd5b505af11580156102e1573d6000803e3d6000fd5b50505050806000015173ffffffffffffffffffffffffffffffffffffffff166108fc349081150290604051600060405180830381858888f1935050505015801561032f573d6000803e3d6000fd5b5060016000838152602001908152602001600020600080820160006101000a81549073ffffffffffffffffffffffffffffffffffffffff021916905560018201600090555050817f2ecc42622b7fc13403eb178d6475f112f2672ca7f533b668bc9cf171560560ac3383602001516040516103ab929190610704565b60405180910390a25050565b60016020528060005260406000206000915090508060000160009054906101000a900473ffffffffffffffffffffffffffffffffffffffff16908060010154905082565b3373ffffffffffffffffffffffffffffffffffffffff1660008054906101000a900473ffffffffffffffffffffffffffffffffffffffff1673ffffffffffffffffffffffffffffffffffffffff16636352211e846040518263ffffffff1660e01b815260040161046b919061088d565b602060405180830381865afa158015610488573d6000803e3d6000fd5b505050506040513d601f19601f820116820180604052508101906104ac91906108d4565b73ffffffffffffffffffffffffffffffffffffffff1614610502576040517f08c379a00000000000000000000000000000000000000000000000000000000081526004016104f99061094d565b60405180910390fd5b60405180604001604052803373ffffffffffffffffffffffffffffffffffffffff168152602001828152506001600084815260200190815260200160002060008201518160000160006101000a81548173ffffffffffffffffffffffffffffffffffffffff021916908373ffffffffffffffffffffffffffffffffffffffff16021790555060208201518160010155905050817f5bcf748d6e9b4ea21c76692e71f20c8ca6b554a5994777a0b2c4efa9ba560bd833836040516105c6929190610704565b60405180910390a25050565b600073ffffffffffffffffffffffffffffffffffffffff82169050919050565b6000819050919050565b600061061761061261060d846105d2565b6105f2565b6105d2565b9050919050565b6000610629826105fc565b9050919050565b600061063b8261061e565b9050919050565b61064b81610630565b82525050565b60006020820190506106666000830184610642565b92915050565b600080fd5b6000819050919050565b61068481610671565b811461068f57600080fd5b50565b6000813590506106a18161067b565b92915050565b6000602082840312156106bd576106bc61066c565b5b60006106cb84828501610692565b91505092915050565b60006106df826105d2565b9050919050565b6106ef816106d4565b82525050565b6106fe81610671565b82525050565b600060408201905061071960008301856106e6565b61072660208301846106f5565b9392505050565b600080604083850312156107445761074361066c565b5b600061075285828601610692565b925050602061076385828601610692565b9150509250929050565b600082825260208201905092915050565b7f496e73756666696369656e74207061796d656e74000000000000000000000000600082015250565b60006107b460148361076d565b91506107bf8261077e565b602082019050919050565b600060208201905081810360008301526107e3816107a7565b9050919050565b7f4e6f74206c697374656420666f722073616c6500000000000000000000000000600082015250565b600061082060138361076d565b915061082b826107ea565b602082019050919050565b6000602082019050818103600083015261084f81610813565b9050919050565b600060608201905061086b60008301866106e6565b61087860208301856106e6565b61088560408301846106f5565b949350505050565b60006020820190506108a260008301846106f5565b92915050565b6108b1816106d4565b81146108bc57600080fd5b50565b6000815190506108ce816108a8565b92915050565b6000602082840312156108ea576108e961066c565b5b60006108f8848285016108bf565b91505092915050565b7f4e6f7420746865206f776e657200000000000000000000000000000000000000600082015250565b6000610937600d8361076d565b915061094282610901565b602082019050919050565b600060208201905081810360008301526109668161092a565b905091905056fea2646970667358221220a5e17e8139008be83c6d085b8137016122a219a81f610cc1c4f92f395f299f5964736f6c63430008140033",
  "linkReferences": {},
  "deployedLinkReferences": {}
}